{
  "_format": "hh-sol-artifact-1",
  "contractName": "JobBoard",
  "sourceName": "contracts/JobBoard.sol",
  "abi": [
    {
      "inputs": [
        {
          "internalType": "address",
          "name": "mainTokenAddress",
          "type": "address"
        },
        {
          "internalType": "address",
          "name": "jobTokenAddress",
          "type": "address"
        }
      ],
      "stateMutability": "nonpayable",
      "type": "constructor"
    },
    {
      "anonymous": false,
      "inputs": [
        {
          "indexed": false,
          "internalType": "uint256",
          "name": "applicationId",
          "type": "uint256"
        }
      ],
      "name": "ApplicationAccepted",
      "type": "event"
    },
    {
      "anonymous": false,
      "inputs": [
        {
          "indexed": false,
          "internalType": "uint256",
          "name": "applicationId",
          "type": "uint256"
        },
        {
          "indexed": false,
          "internalType": "uint256",
          "name": "jobId",
          "type": "uint256"
        },
        {
          "indexed": false,
          "internalType": "address",
          "name": "applicant",
          "type": "address"
        }
      ],
      "name": "JobApplied",
      "type": "event"
    },
    {
      "anonymous": false,
      "inputs": [
        {
          "indexed": false,
          "internalType": "uint256",
          "name": "jobId",
          "type": "uint256"
        }
      ],
      "name": "JobCompleted",
      "type": "event"
    },
    {
      "anonymous": false,
      "inputs": [
        {
          "indexed": false,
          "internalType": "uint256",
          "name": "jobId",
          "type": "uint256"
        },
        {
          "indexed": false,
          "internalType": "string",
          "name": "title",
          "type": "string"
        },
        {
          "indexed": false,
          "internalType": "address",
          "name": "employer",
          "type": "address"
        }
      ],
      "name": "JobPosted",
      "type": "event"
    },
    {
      "anonymous": false,
      "inputs": [
        {
          "indexed": true,
          "internalType": "address",
          "name": "previousOwner",
          "type": "address"
        },
        {
          "indexed": true,
          "internalType": "address",
          "name": "newOwner",
          "type": "address"
        }
      ],
      "name": "OwnershipTransferred",
      "type": "event"
    },
    {
      "inputs": [
        {
          "internalType": "uint256",
          "name": "_applicationId",
          "type": "uint256"
        }
      ],
      "name": "acceptApplication",
      "outputs": [],
      "stateMutability": "nonpayable",
      "type": "function"
    },
    {
      "inputs": [],
      "name": "applicationCount",
      "outputs": [
        {
          "internalType": "uint256",
          "name": "",
          "type": "uint256"
        }
      ],
      "stateMutability": "view",
      "type": "function"
    },
    {
      "inputs": [
        {
          "internalType": "uint256",
          "name": "",
          "type": "uint256"
        }
      ],
      "name": "applications",
      "outputs": [
        {
          "internalType": "uint256",
          "name": "jobId",
          "type": "uint256"
        },
        {
          "internalType": "address",
          "name": "applicant",
          "type": "address"
        },
        {
          "internalType": "string",
          "name": "ipfsHash",
          "type": "string"
        },
        {
          "internalType": "bool",
          "name": "isAccepted",
          "type": "bool"
        }
      ],
      "stateMutability": "view",
      "type": "function"
    },
    {
      "inputs": [
        {
          "internalType": "uint256",
          "name": "_jobId",
          "type": "uint256"
        },
        {
          "internalType": "string",
          "name": "_ipfsHash",
          "type": "string"
        }
      ],
      "name": "applyForJob",
      "outputs": [],
      "stateMutability": "nonpayable",
      "type": "function"
    },
    {
      "inputs": [
        {
          "internalType": "uint256",
          "name": "_jobId",
          "type": "uint256"
        },
        {
          "internalType": "address",
          "name": "employerAddress",
          "type": "address"
        }
      ],
      "name": "getApplications",
      "outputs": [
        {
          "components": [
            {
              "internalType": "uint256",
              "name": "jobId",
              "type": "uint256"
            },
            {
              "internalType": "address",
              "name": "applicant",
              "type": "address"
            },
            {
              "internalType": "string",
              "name": "ipfsHash",
              "type": "string"
            },
            {
              "internalType": "bool",
              "name": "isAccepted",
              "type": "bool"
            }
          ],
          "internalType": "struct JobBoard.Application[]",
          "name": "",
          "type": "tuple[]"
        }
      ],
      "stateMutability": "view",
      "type": "function"
    },
    {
      "inputs": [],
      "name": "getJobs",
      "outputs": [
        {
          "components": [
            {
              "internalType": "uint256",
              "name": "id",
              "type": "uint256"
            },
            {
              "internalType": "string",
              "name": "title",
              "type": "string"
            },
            {
              "internalType": "string",
              "name": "description",
              "type": "string"
            },
            {
              "internalType": "uint256",
              "name": "reward",
              "type": "uint256"
            },
            {
              "internalType": "address",
              "name": "employer",
              "type": "address"
            },
            {
              "internalType": "address[]",
              "name": "applications",
              "type": "address[]"
            },
            {
              "internalType": "bool",
              "name": "isCompleted",
              "type": "bool"
            }
          ],
          "internalType": "struct JobBoard.Job[]",
          "name": "",
          "type": "tuple[]"
        }
      ],
      "stateMutability": "view",
      "type": "function"
    },
    {
      "inputs": [],
      "name": "jobCount",
      "outputs": [
        {
          "internalType": "uint256",
          "name": "",
          "type": "uint256"
        }
      ],
      "stateMutability": "view",
      "type": "function"
    },
    {
      "inputs": [],
      "name": "jobToken",
      "outputs": [
        {
          "internalType": "contract IERC20",
          "name": "",
          "type": "address"
        }
      ],
      "stateMutability": "view",
      "type": "function"
    },
    {
      "inputs": [
        {
          "internalType": "uint256",
          "name": "",
          "type": "uint256"
        }
      ],
      "name": "jobs",
      "outputs": [
        {
          "internalType": "uint256",
          "name": "id",
          "type": "uint256"
        },
        {
          "internalType": "string",
          "name": "title",
          "type": "string"
        },
        {
          "internalType": "string",
          "name": "description",
          "type": "string"
        },
        {
          "internalType": "uint256",
          "name": "reward",
          "type": "uint256"
        },
        {
          "internalType": "address",
          "name": "employer",
          "type": "address"
        },
        {
          "internalType": "bool",
          "name": "isCompleted",
          "type": "bool"
        }
      ],
      "stateMutability": "view",
      "type": "function"
    },
    {
      "inputs": [],
      "name": "mainToken",
      "outputs": [
        {
          "internalType": "contract IERC20",
          "name": "",
          "type": "address"
        }
      ],
      "stateMutability": "view",
      "type": "function"
    },
    {
      "inputs": [],
      "name": "owner",
      "outputs": [
        {
          "internalType": "address",
          "name": "",
          "type": "address"
        }
      ],
      "stateMutability": "view",
      "type": "function"
    },
    {
      "inputs": [
        {
          "internalType": "string",
          "name": "_title",
          "type": "string"
        },
        {
          "internalType": "string",
          "name": "_description",
          "type": "string"
        },
        {
          "internalType": "uint256",
          "name": "_reward",
          "type": "uint256"
        }
      ],
      "name": "postJob",
      "outputs": [],
      "stateMutability": "nonpayable",
      "type": "function"
    },
    {
      "inputs": [],
      "name": "renounceOwnership",
      "outputs": [],
      "stateMutability": "nonpayable",
      "type": "function"
    },
    {
      "inputs": [
        {
          "internalType": "address",
          "name": "newOwner",
          "type": "address"
        }
      ],
      "name": "transferOwnership",
      "outputs": [],
      "stateMutability": "nonpayable",
      "type": "function"
    },
    {
      "stateMutability": "payable",
      "type": "receive"
    }
  ],
  "bytecode": "0x60806040523480156200001157600080fd5b5060405162002fde38038062002fde83398181016040528101906200003791906200030b565b620000576200004b620001d560201b60201c565b620001dd60201b60201c565b600073ffffffffffffffffffffffffffffffffffffffff168273ffffffffffffffffffffffffffffffffffffffff1603620000c9576040517f08c379a0000000000000000000000000000000000000000000000000000000008152600401620000c090620003b3565b60405180910390fd5b600073ffffffffffffffffffffffffffffffffffffffff168173ffffffffffffffffffffffffffffffffffffffff16036200013b576040517f08c379a00000000000000000000000000000000000000000000000000000000081526004016200013290620003b3565b60405180910390fd5b6000600381905550600060048190555081600560006101000a81548173ffffffffffffffffffffffffffffffffffffffff021916908373ffffffffffffffffffffffffffffffffffffffff16021790555080600660006101000a81548173ffffffffffffffffffffffffffffffffffffffff021916908373ffffffffffffffffffffffffffffffffffffffff1602179055505050620003d5565b600033905090565b60008060009054906101000a900473ffffffffffffffffffffffffffffffffffffffff169050816000806101000a81548173ffffffffffffffffffffffffffffffffffffffff021916908373ffffffffffffffffffffffffffffffffffffffff1602179055508173ffffffffffffffffffffffffffffffffffffffff168173ffffffffffffffffffffffffffffffffffffffff167f8be0079c531659141344cd1fd0a4f28419497f9722a3daafe3b4186f6b6457e060405160405180910390a35050565b600080fd5b600073ffffffffffffffffffffffffffffffffffffffff82169050919050565b6000620002d382620002a6565b9050919050565b620002e581620002c6565b8114620002f157600080fd5b50565b6000815190506200030581620002da565b92915050565b60008060408385031215620003255762000324620002a1565b5b60006200033585828601620002f4565b92505060206200034885828601620002f4565b9150509250929050565b600082825260208201905092915050565b7f5a65726f20746f6b656e20616464726573730000000000000000000000000000600082015250565b60006200039b60128362000352565b9150620003a88262000363565b602082019050919050565b60006020820190508181036000830152620003ce816200038c565b9050919050565b612bf980620003e56000396000f3fe6080604052600436106100e15760003560e01c8063715018a61161007f578063dfefadff11610059578063dfefadff14610298578063e2aad4a0146102d8578063f2fde38b14610303578063f5bc85c01461032c576100e8565b8063715018a61461022b5780638da5cb5b14610242578063901f76f81461026d576100e8565b80634c5d8a0f116100bb5780634c5d8a0f146101835780635c3b9c4a146101ae57806368581ebd146101d75780636c09a5e314610202576100e8565b8063180aedf3146100ed5780632084ea531461012f5780633fc15f1514610158576100e8565b366100e857005b600080fd5b3480156100f957600080fd5b50610114600480360381019061010f919061190c565b610369565b60405161012696959493929190611a34565b60405180910390f35b34801561013b57600080fd5b506101566004803603810190610151919061190c565b6104e2565b005b34801561016457600080fd5b5061016d6107d0565b60405161017a9190611b02565b60405180910390f35b34801561018f57600080fd5b506101986107f6565b6040516101a59190611b1d565b60405180910390f35b3480156101ba57600080fd5b506101d560048036038101906101d09190611c6d565b6107fc565b005b3480156101e357600080fd5b506101ec6109c9565b6040516101f99190611f8a565b60405180910390f35b34801561020e57600080fd5b5061022960048036038101906102249190611fac565b610cba565b005b34801561023757600080fd5b506102406111a2565b005b34801561024e57600080fd5b506102576111b6565b6040516102649190612008565b60405180910390f35b34801561027957600080fd5b506102826111df565b60405161028f9190611b02565b60405180910390f35b3480156102a457600080fd5b506102bf60048036038101906102ba919061190c565b611205565b6040516102cf9493929190612023565b60405180910390f35b3480156102e457600080fd5b506102ed6112ea565b6040516102fa9190611b1d565b60405180910390f35b34801561030f57600080fd5b5061032a6004803603810190610325919061209b565b6112f0565b005b34801561033857600080fd5b50610353600480360381019061034e91906120c8565b611373565b604051610360919061222d565b60405180910390f35b60016020528060005260406000206000915090508060000154908060010180546103929061227e565b80601f01602080910402602001604051908101604052809291908181526020018280546103be9061227e565b801561040b5780601f106103e05761010080835404028352916020019161040b565b820191906000526020600020905b8154815290600101906020018083116103ee57829003601f168201915b5050505050908060020180546104209061227e565b80601f016020809104026020016040519081016040528092919081815260200182805461044c9061227e565b80156104995780601f1061046e57610100808354040283529160200191610499565b820191906000526020600020905b81548152906001019060200180831161047c57829003601f168201915b5050505050908060030154908060040160009054906101000a900473ffffffffffffffffffffffffffffffffffffffff16908060060160009054906101000a900460ff16905086565b60006002600083815260200190815260200160002090506000600160008360000154815260200190815260200160002090508060040160009054906101000a900473ffffffffffffffffffffffffffffffffffffffff1673ffffffffffffffffffffffffffffffffffffffff163373ffffffffffffffffffffffffffffffffffffffff16146105a6576040517f08c379a000000000000000000000000000000000000000000000000000000000815260040161059d90612321565b60405180910390fd5b600015158160060160009054906101000a900460ff161515146105fe576040517f08c379a00000000000000000000000000000000000000000000000000000000081526004016105f59061238d565b60405180910390fd5b60018260030160006101000a81548160ff02191690831515021790555060018160060160006101000a81548160ff021916908315150217905550600660009054906101000a900473ffffffffffffffffffffffffffffffffffffffff1673ffffffffffffffffffffffffffffffffffffffff1663a9059cbb8360010160009054906101000a900473ffffffffffffffffffffffffffffffffffffffff166106ba670de0b6b3a7640000856003015461162690919063ffffffff16565b6040518363ffffffff1660e01b81526004016106d79291906123ad565b6020604051808303816000875af11580156106f6573d6000803e3d6000fd5b505050506040513d601f19601f8201168201806040525081019061071a9190612402565b610759576040517f08c379a00000000000000000000000000000000000000000000000000000000081526004016107509061247b565b60405180910390fd5b7fcddcb64d734dc6255ee597ed6577a779ed6750a0a5ff6d20c8473d35864865dc836040516107889190611b1d565b60405180910390a17f02244c8529cb95e213ee542e76e7776342b3dabd10203d01472bbf4441be892982600001546040516107c39190611b1d565b60405180910390a1505050565b600560009054906101000a900473ffffffffffffffffffffffffffffffffffffffff1681565b60035481565b6040518060e0016040528060035481526020018481526020018381526020018281526020013373ffffffffffffffffffffffffffffffffffffffff168152602001600067ffffffffffffffff81111561085857610857611b42565b5b6040519080825280602002602001820160405280156108865781602001602082028036833780820191505090505b508152602001600015158152506001600060035481526020019081526020016000206000820151816000015560208201518160010190816108c7919061263d565b5060408201518160020190816108dd919061263d565b506060820151816003015560808201518160040160006101000a81548173ffffffffffffffffffffffffffffffffffffffff021916908373ffffffffffffffffffffffffffffffffffffffff16021790555060a082015181600501908051906020019061094b929190611786565b5060c08201518160060160006101000a81548160ff021916908315150217905550905050600360008154809291906109829061273e565b91905055507f4d735a55ef1592186e3de98cfded1b75826f5b08a7d2777536ac6bcc9b5e8f2b60035484336040516109bc93929190612786565b60405180910390a1505050565b6060600060035467ffffffffffffffff8111156109e9576109e8611b42565b5b604051908082528060200260200182016040528015610a2257816020015b610a0f611810565b815260200190600190039081610a075790505b50905060005b600354811015610cb257600160008281526020019081526020016000206040518060e001604052908160008201548152602001600182018054610a6a9061227e565b80601f0160208091040260200160405190810160405280929190818152602001828054610a969061227e565b8015610ae35780601f10610ab857610100808354040283529160200191610ae3565b820191906000526020600020905b815481529060010190602001808311610ac657829003601f168201915b50505050508152602001600282018054610afc9061227e565b80601f0160208091040260200160405190810160405280929190818152602001828054610b289061227e565b8015610b755780601f10610b4a57610100808354040283529160200191610b75565b820191906000526020600020905b815481529060010190602001808311610b5857829003601f168201915b50505050508152602001600382015481526020016004820160009054906101000a900473ffffffffffffffffffffffffffffffffffffffff1673ffffffffffffffffffffffffffffffffffffffff1673ffffffffffffffffffffffffffffffffffffffff16815260200160058201805480602002602001604051908101604052809291908181526020018280548015610c6357602002820191906000526020600020905b8160009054906101000a900473ffffffffffffffffffffffffffffffffffffffff1673ffffffffffffffffffffffffffffffffffffffff1681526020019060010190808311610c19575b505050505081526020016006820160009054906101000a900460ff161515151581525050828281518110610c9a57610c996127c4565b5b60200260200101819052508080600101915050610a28565b508091505090565b60008210158015610ccc575060035482105b610d0b576040517f08c379a0000000000000000000000000000000000000000000000000000000008152600401610d029061283f565b60405180910390fd5b6001600083815260200190815260200160002060040160009054906101000a900473ffffffffffffffffffffffffffffffffffffffff1673ffffffffffffffffffffffffffffffffffffffff163373ffffffffffffffffffffffffffffffffffffffff1603610daf576040517f08c379a0000000000000000000000000000000000000000000000000000000008152600401610da6906128d1565b60405180910390fd5b6000805b6001600085815260200190815260200160002060050180549050811015610e6f573373ffffffffffffffffffffffffffffffffffffffff16600160008681526020019081526020016000206005018281548110610e1357610e126127c4565b5b9060005260206000200160009054906101000a900473ffffffffffffffffffffffffffffffffffffffff1673ffffffffffffffffffffffffffffffffffffffff1603610e625760019150610e6f565b8080600101915050610db3565b508015610eb1576040517f08c379a0000000000000000000000000000000000000000000000000000000008152600401610ea890612963565b60405180910390fd5b60405180608001604052808481526020013373ffffffffffffffffffffffffffffffffffffffff168152602001838152602001600015158152506002600060045481526020019081526020016000206000820151816000015560208201518160010160006101000a81548173ffffffffffffffffffffffffffffffffffffffff021916908373ffffffffffffffffffffffffffffffffffffffff1602179055506040820151816002019081610f66919061263d565b5060608201518160030160006101000a81548160ff02191690831515021790555090505060016000848152602001908152602001600020600501339080600181540180825580915050600190039060005260206000200160009091909190916101000a81548173ffffffffffffffffffffffffffffffffffffffff021916908373ffffffffffffffffffffffffffffffffffffffff160217905550600460008154809291906110149061273e565b9190505550600660009054906101000a900473ffffffffffffffffffffffffffffffffffffffff1673ffffffffffffffffffffffffffffffffffffffff166323b872dd336001600087815260200190815260200160002060040160009054906101000a900473ffffffffffffffffffffffffffffffffffffffff166110c0670de0b6b3a7640000600160008a81526020019081526020016000206003015461162690919063ffffffff16565b6040518463ffffffff1660e01b81526004016110de93929190612983565b6020604051808303816000875af11580156110fd573d6000803e3d6000fd5b505050506040513d601f19601f820116820180604052508101906111219190612402565b611160576040517f08c379a00000000000000000000000000000000000000000000000000000000081526004016111579061247b565b60405180910390fd5b7f862172c1856d6b588026101607e70e39488af9e58219c3e91138d584a2b2eca56004548433604051611195939291906129ba565b60405180910390a1505050565b6111aa61163c565b6111b460006116ba565b565b60008060009054906101000a900473ffffffffffffffffffffffffffffffffffffffff16905090565b600660009054906101000a900473ffffffffffffffffffffffffffffffffffffffff1681565b60026020528060005260406000206000915090508060000154908060010160009054906101000a900473ffffffffffffffffffffffffffffffffffffffff16908060020180546112549061227e565b80601f01602080910402602001604051908101604052809291908181526020018280546112809061227e565b80156112cd5780601f106112a2576101008083540402835291602001916112cd565b820191906000526020600020905b8154815290600101906020018083116112b057829003601f168201915b5050505050908060030160009054906101000a900460ff16905084565b60045481565b6112f861163c565b600073ffffffffffffffffffffffffffffffffffffffff168173ffffffffffffffffffffffffffffffffffffffff1603611367576040517f08c379a000000000000000000000000000000000000000000000000000000000815260040161135e90612a63565b60405180910390fd5b611370816116ba565b50565b60608173ffffffffffffffffffffffffffffffffffffffff166001600085815260200190815260200160002060040160009054906101000a900473ffffffffffffffffffffffffffffffffffffffff1673ffffffffffffffffffffffffffffffffffffffff1614611419576040517f08c379a000000000000000000000000000000000000000000000000000000000815260040161141090612af5565b60405180910390fd5b6000600160008581526020019081526020016000206005018054905067ffffffffffffffff81111561144e5761144d611b42565b5b60405190808252806020026020018201604052801561148757816020015b611474611865565b81526020019060019003908161146c5790505b5090506000805b60045481101561161a578560026000838152602001908152602001600020600001540361160d5760026000828152602001908152602001600020604051806080016040529081600082015481526020016001820160009054906101000a900473ffffffffffffffffffffffffffffffffffffffff1673ffffffffffffffffffffffffffffffffffffffff1673ffffffffffffffffffffffffffffffffffffffff1681526020016002820180546115439061227e565b80601f016020809104026020016040519081016040528092919081815260200182805461156f9061227e565b80156115bc5780601f10611591576101008083540402835291602001916115bc565b820191906000526020600020905b81548152906001019060200180831161159f57829003601f168201915b505050505081526020016003820160009054906101000a900460ff1615151515815250508383815181106115f3576115f26127c4565b5b602002602001018190525081806116099061273e565b9250505b808060010191505061148e565b50819250505092915050565b600081836116349190612b15565b905092915050565b61164461177e565b73ffffffffffffffffffffffffffffffffffffffff166116626111b6565b73ffffffffffffffffffffffffffffffffffffffff16146116b8576040517f08c379a00000000000000000000000000000000000000000000000000000000081526004016116af90612ba3565b60405180910390fd5b565b60008060009054906101000a900473ffffffffffffffffffffffffffffffffffffffff169050816000806101000a81548173ffffffffffffffffffffffffffffffffffffffff021916908373ffffffffffffffffffffffffffffffffffffffff1602179055508173ffffffffffffffffffffffffffffffffffffffff168173ffffffffffffffffffffffffffffffffffffffff167f8be0079c531659141344cd1fd0a4f28419497f9722a3daafe3b4186f6b6457e060405160405180910390a35050565b600033905090565b8280548282559060005260206000209081019282156117ff579160200282015b828111156117fe5782518260006101000a81548173ffffffffffffffffffffffffffffffffffffffff021916908373ffffffffffffffffffffffffffffffffffffffff160217905550916020019190600101906117a6565b5b50905061180c91906118a5565b5090565b6040518060e0016040528060008152602001606081526020016060815260200160008152602001600073ffffffffffffffffffffffffffffffffffffffff168152602001606081526020016000151581525090565b604051806080016040528060008152602001600073ffffffffffffffffffffffffffffffffffffffff168152602001606081526020016000151581525090565b5b808211156118be5760008160009055506001016118a6565b5090565b6000604051905090565b600080fd5b600080fd5b6000819050919050565b6118e9816118d6565b81146118f457600080fd5b50565b600081359050611906816118e0565b92915050565b600060208284031215611922576119216118cc565b5b6000611930848285016118f7565b91505092915050565b611942816118d6565b82525050565b600081519050919050565b600082825260208201905092915050565b60005b83811015611982578082015181840152602081019050611967565b60008484015250505050565b6000601f19601f8301169050919050565b60006119aa82611948565b6119b48185611953565b93506119c4818560208601611964565b6119cd8161198e565b840191505092915050565b600073ffffffffffffffffffffffffffffffffffffffff82169050919050565b6000611a03826119d8565b9050919050565b611a13816119f8565b82525050565b60008115159050919050565b611a2e81611a19565b82525050565b600060c082019050611a496000830189611939565b8181036020830152611a5b818861199f565b90508181036040830152611a6f818761199f565b9050611a7e6060830186611939565b611a8b6080830185611a0a565b611a9860a0830184611a25565b979650505050505050565b6000819050919050565b6000611ac8611ac3611abe846119d8565b611aa3565b6119d8565b9050919050565b6000611ada82611aad565b9050919050565b6000611aec82611acf565b9050919050565b611afc81611ae1565b82525050565b6000602082019050611b176000830184611af3565b92915050565b6000602082019050611b326000830184611939565b92915050565b600080fd5b600080fd5b7f4e487b7100000000000000000000000000000000000000000000000000000000600052604160045260246000fd5b611b7a8261198e565b810181811067ffffffffffffffff82111715611b9957611b98611b42565b5b80604052505050565b6000611bac6118c2565b9050611bb88282611b71565b919050565b600067ffffffffffffffff821115611bd857611bd7611b42565b5b611be18261198e565b9050602081019050919050565b82818337600083830152505050565b6000611c10611c0b84611bbd565b611ba2565b905082815260208101848484011115611c2c57611c2b611b3d565b5b611c37848285611bee565b509392505050565b600082601f830112611c5457611c53611b38565b5b8135611c64848260208601611bfd565b91505092915050565b600080600060608486031215611c8657611c856118cc565b5b600084013567ffffffffffffffff811115611ca457611ca36118d1565b5b611cb086828701611c3f565b935050602084013567ffffffffffffffff811115611cd157611cd06118d1565b5b611cdd86828701611c3f565b9250506040611cee868287016118f7565b9150509250925092565b600081519050919050565b600082825260208201905092915050565b6000819050602082019050919050565b611d2d816118d6565b82525050565b600082825260208201905092915050565b6000611d4f82611948565b611d598185611d33565b9350611d69818560208601611964565b611d728161198e565b840191505092915050565b611d86816119f8565b82525050565b600081519050919050565b600082825260208201905092915050565b6000819050602082019050919050565b6000611dc48383611d7d565b60208301905092915050565b6000602082019050919050565b6000611de882611d8c565b611df28185611d97565b9350611dfd83611da8565b8060005b83811015611e2e578151611e158882611db8565b9750611e2083611dd0565b925050600181019050611e01565b5085935050505092915050565b611e4481611a19565b82525050565b600060e083016000830151611e626000860182611d24565b5060208301518482036020860152611e7a8282611d44565b91505060408301518482036040860152611e948282611d44565b9150506060830151611ea96060860182611d24565b506080830151611ebc6080860182611d7d565b5060a083015184820360a0860152611ed48282611ddd565b91505060c0830151611ee960c0860182611e3b565b508091505092915050565b6000611f008383611e4a565b905092915050565b6000602082019050919050565b6000611f2082611cf8565b611f2a8185611d03565b935083602082028501611f3c85611d14565b8060005b85811015611f785784840389528151611f598582611ef4565b9450611f6483611f08565b925060208a01995050600181019050611f40565b50829750879550505050505092915050565b60006020820190508181036000830152611fa48184611f15565b905092915050565b60008060408385031215611fc357611fc26118cc565b5b6000611fd1858286016118f7565b925050602083013567ffffffffffffffff811115611ff257611ff16118d1565b5b611ffe85828601611c3f565b9150509250929050565b600060208201905061201d6000830184611a0a565b92915050565b60006080820190506120386000830187611939565b6120456020830186611a0a565b8181036040830152612057818561199f565b90506120666060830184611a25565b95945050505050565b612078816119f8565b811461208357600080fd5b50565b6000813590506120958161206f565b92915050565b6000602082840312156120b1576120b06118cc565b5b60006120bf84828501612086565b91505092915050565b600080604083850312156120df576120de6118cc565b5b60006120ed858286016118f7565b92505060206120fe85828601612086565b9150509250929050565b600081519050919050565b600082825260208201905092915050565b6000819050602082019050919050565b600060808301600083015161214c6000860182611d24565b50602083015161215f6020860182611d7d565b50604083015184820360408601526121778282611d44565b915050606083015161218c6060860182611e3b565b508091505092915050565b60006121a38383612134565b905092915050565b6000602082019050919050565b60006121c382612108565b6121cd8185612113565b9350836020820285016121df85612124565b8060005b8581101561221b57848403895281516121fc8582612197565b9450612207836121ab565b925060208a019950506001810190506121e3565b50829750879550505050505092915050565b6000602082019050818103600083015261224781846121b8565b905092915050565b7f4e487b7100000000000000000000000000000000000000000000000000000000600052602260045260246000fd5b6000600282049050600182168061229657607f821691505b6020821081036122a9576122a861224f565b5b50919050565b7f4f6e6c7920656d706c6f7965722063616e20616363657074206170706c69636160008201527f74696f6e73000000000000000000000000000000000000000000000000000000602082015250565b600061230b602583611953565b9150612316826122af565b604082019050919050565b6000602082019050818103600083015261233a816122fe565b9050919050565b7f4a6f6220697320616c726561647920636f6d706c657465640000000000000000600082015250565b6000612377601883611953565b915061238282612341565b602082019050919050565b600060208201905081810360008301526123a68161236a565b9050919050565b60006040820190506123c26000830185611a0a565b6123cf6020830184611939565b9392505050565b6123df81611a19565b81146123ea57600080fd5b50565b6000815190506123fc816123d6565b92915050565b600060208284031215612418576124176118cc565b5b6000612426848285016123ed565b91505092915050565b7f546f6b656e207472616e73666572206661696c65640000000000000000000000600082015250565b6000612465601583611953565b91506124708261242f565b602082019050919050565b6000602082019050818103600083015261249481612458565b9050919050565b60008190508160005260206000209050919050565b60006020601f8301049050919050565b600082821b905092915050565b6000600883026124fd7fffffffffffffffffffffffffffffffffffffffffffffffffffffffffffffffff826124c0565b61250786836124c0565b95508019841693508086168417925050509392505050565b600061253a612535612530846118d6565b611aa3565b6118d6565b9050919050565b6000819050919050565b6125548361251f565b61256861256082612541565b8484546124cd565b825550505050565b600090565b61257d612570565b61258881848461254b565b505050565b5b818110156125ac576125a1600082612575565b60018101905061258e565b5050565b601f8211156125f1576125c28161249b565b6125cb846124b0565b810160208510156125da578190505b6125ee6125e6856124b0565b83018261258d565b50505b505050565b600082821c905092915050565b6000612614600019846008026125f6565b1980831691505092915050565b600061262d8383612603565b9150826002028217905092915050565b61264682611948565b67ffffffffffffffff81111561265f5761265e611b42565b5b612669825461227e565b6126748282856125b0565b600060209050601f8311600181146126a75760008415612695578287015190505b61269f8582612621565b865550612707565b601f1984166126b58661249b565b60005b828110156126dd578489015182556001820191506020850194506020810190506126b8565b868310156126fa57848901516126f6601f891682612603565b8355505b6001600288020188555050505b505050505050565b7f4e487b7100000000000000000000000000000000000000000000000000000000600052601160045260246000fd5b6000612749826118d6565b91507fffffffffffffffffffffffffffffffffffffffffffffffffffffffffffffffff820361277b5761277a61270f565b5b600182019050919050565b600060608201905061279b6000830186611939565b81810360208301526127ad818561199f565b90506127bc6040830184611a0a565b949350505050565b7f4e487b7100000000000000000000000000000000000000000000000000000000600052603260045260246000fd5b7f496e76616c6964206a6f62204944000000000000000000000000000000000000600082015250565b6000612829600e83611953565b9150612834826127f3565b602082019050919050565b600060208201905081810360008301526128588161281c565b9050919050565b7f456d706c6f7965722063616e6e6f74206170706c7920666f722074686569722060008201527f6f776e206a6f6200000000000000000000000000000000000000000000000000602082015250565b60006128bb602783611953565b91506128c68261285f565b604082019050919050565b600060208201905081810360008301526128ea816128ae565b9050919050565b7f4170706c6963616e742068617320616c7265616479206170706c69656420666f60008201527f722074686973206a6f6200000000000000000000000000000000000000000000602082015250565b600061294d602a83611953565b9150612958826128f1565b604082019050919050565b6000602082019050818103600083015261297c81612940565b9050919050565b60006060820190506129986000830186611a0a565b6129a56020830185611a0a565b6129b26040830184611939565b949350505050565b60006060820190506129cf6000830186611939565b6129dc6020830185611939565b6129e96040830184611a0a565b949350505050565b7f4f776e61626c653a206e6577206f776e657220697320746865207a65726f206160008201527f6464726573730000000000000000000000000000000000000000000000000000602082015250565b6000612a4d602683611953565b9150612a58826129f1565b604082019050919050565b60006020820190508181036000830152612a7c81612a40565b9050919050565b7f4f6e6c7920656d706c6f7965722063616e20736565206170706c69636174696f60008201527f6e732e0000000000000000000000000000000000000000000000000000000000602082015250565b6000612adf602383611953565b9150612aea82612a83565b604082019050919050565b60006020820190508181036000830152612b0e81612ad2565b9050919050565b6000612b20826118d6565b9150612b2b836118d6565b9250828202612b39816118d6565b91508282048414831517612b5057612b4f61270f565b5b5092915050565b7f4f776e61626c653a2063616c6c6572206973206e6f7420746865206f776e6572600082015250565b6000612b8d602083611953565b9150612b9882612b57565b602082019050919050565b60006020820190508181036000830152612bbc81612b80565b905091905056fea2646970667358221220a8096af8232410d47d0660dc457169dc6e6ea99ec3a5b9162c40109502f099d764736f6c63430008180033",
  "linkReferences": {},
  "deployedLinkReferences": {}
}