{
  "_format": "hh-sol-artifact-1",
  "contractName": "JobBoard",
  "sourceName": "contracts/JobBoard.sol",
  "abi": [
    {
      "inputs": [],
      "stateMutability": "nonpayable",
      "type": "constructor"
    },
    {
      "anonymous": false,
      "inputs": [
        {
          "indexed": false,
          "internalType": "uint256",
          "name": "applicationId",
          "type": "uint256"
        }
      ],
      "name": "ApplicationAccepted",
      "type": "event"
    },
    {
      "anonymous": false,
      "inputs": [
        {
          "indexed": false,
          "internalType": "uint256",
          "name": "applicationId",
          "type": "uint256"
        },
        {
          "indexed": false,
          "internalType": "uint256",
          "name": "jobId",
          "type": "uint256"
        },
        {
          "indexed": false,
          "internalType": "address",
          "name": "applicant",
          "type": "address"
        }
      ],
      "name": "JobApplied",
      "type": "event"
    },
    {
      "anonymous": false,
      "inputs": [
        {
          "indexed": false,
          "internalType": "uint256",
          "name": "jobId",
          "type": "uint256"
        }
      ],
      "name": "JobCompleted",
      "type": "event"
    },
    {
      "anonymous": false,
      "inputs": [
        {
          "indexed": false,
          "internalType": "uint256",
          "name": "jobId",
          "type": "uint256"
        },
        {
          "indexed": false,
          "internalType": "string",
          "name": "title",
          "type": "string"
        },
        {
          "indexed": false,
          "internalType": "address",
          "name": "employer",
          "type": "address"
        }
      ],
      "name": "JobPosted",
      "type": "event"
    },
    {
      "inputs": [
        {
          "internalType": "uint256",
          "name": "_applicationId",
          "type": "uint256"
        }
      ],
      "name": "acceptApplication",
      "outputs": [],
      "stateMutability": "nonpayable",
      "type": "function"
    },
    {
      "inputs": [],
      "name": "applicationCount",
      "outputs": [
        {
          "internalType": "uint256",
          "name": "",
          "type": "uint256"
        }
      ],
      "stateMutability": "view",
      "type": "function"
    },
    {
      "inputs": [
        {
          "internalType": "uint256",
          "name": "",
          "type": "uint256"
        }
      ],
      "name": "applications",
      "outputs": [
        {
          "internalType": "uint256",
          "name": "jobId",
          "type": "uint256"
        },
        {
          "internalType": "address",
          "name": "applicant",
          "type": "address"
        },
        {
          "internalType": "string",
          "name": "ipfsHash",
          "type": "string"
        },
        {
          "internalType": "bool",
          "name": "isAccepted",
          "type": "bool"
        }
      ],
      "stateMutability": "view",
      "type": "function"
    },
    {
      "inputs": [
        {
          "internalType": "uint256",
          "name": "_jobId",
          "type": "uint256"
        },
        {
          "internalType": "string",
          "name": "_ipfsHash",
          "type": "string"
        }
      ],
      "name": "applyForJob",
      "outputs": [],
      "stateMutability": "nonpayable",
      "type": "function"
    },
    {
      "inputs": [],
      "name": "jobCount",
      "outputs": [
        {
          "internalType": "uint256",
          "name": "",
          "type": "uint256"
        }
      ],
      "stateMutability": "view",
      "type": "function"
    },
    {
      "inputs": [
        {
          "internalType": "uint256",
          "name": "",
          "type": "uint256"
        }
      ],
      "name": "jobs",
      "outputs": [
        {
          "internalType": "uint256",
          "name": "id",
          "type": "uint256"
        },
        {
          "internalType": "string",
          "name": "title",
          "type": "string"
        },
        {
          "internalType": "string",
          "name": "description",
          "type": "string"
        },
        {
          "internalType": "uint256",
          "name": "reward",
          "type": "uint256"
        },
        {
          "internalType": "address",
          "name": "employer",
          "type": "address"
        },
        {
          "internalType": "bool",
          "name": "isCompleted",
          "type": "bool"
        }
      ],
      "stateMutability": "view",
      "type": "function"
    },
    {
      "inputs": [
        {
          "internalType": "string",
          "name": "_title",
          "type": "string"
        },
        {
          "internalType": "string",
          "name": "_description",
          "type": "string"
        },
        {
          "internalType": "uint256",
          "name": "_reward",
          "type": "uint256"
        }
      ],
      "name": "postJob",
      "outputs": [],
      "stateMutability": "nonpayable",
      "type": "function"
    },
    {
      "stateMutability": "payable",
      "type": "receive"
    }
  ],
  "bytecode": "0x608060405234801561001057600080fd5b50600060028190555060006003819055506114b2806100306000396000f3fe6080604052600436106100745760003560e01c80635c3b9c4a1161004e5780635c3b9c4a146101165780636c09a5e31461013f578063dfefadff14610168578063e2aad4a0146101a85761007b565b8063180aedf3146100805780632084ea53146100c25780634c5d8a0f146100eb5761007b565b3661007b57005b600080fd5b34801561008c57600080fd5b506100a760048036038101906100a29190610b2e565b6101d3565b6040516100b996959493929190610c56565b60405180910390f35b3480156100ce57600080fd5b506100e960048036038101906100e49190610b2e565b61034c565b005b3480156100f757600080fd5b50610100610587565b60405161010d9190610cc5565b60405180910390f35b34801561012257600080fd5b5061013d60048036038101906101389190610e15565b61058d565b005b34801561014b57600080fd5b5061016660048036038101906101619190610ea0565b610759565b005b34801561017457600080fd5b5061018f600480360381019061018a9190610b2e565b610952565b60405161019f9493929190610efc565b60405180910390f35b3480156101b457600080fd5b506101bd610a37565b6040516101ca9190610cc5565b60405180910390f35b60006020528060005260406000206000915090508060000154908060010180546101fc90610f77565b80601f016020809104026020016040519081016040528092919081815260200182805461022890610f77565b80156102755780601f1061024a57610100808354040283529160200191610275565b820191906000526020600020905b81548152906001019060200180831161025857829003601f168201915b50505050509080600201805461028a90610f77565b80601f01602080910402602001604051908101604052809291908181526020018280546102b690610f77565b80156103035780601f106102d857610100808354040283529160200191610303565b820191906000526020600020905b8154815290600101906020018083116102e657829003601f168201915b5050505050908060030154908060040160009054906101000a900473ffffffffffffffffffffffffffffffffffffffff16908060060160009054906101000a900460ff16905086565b600060016000838152602001908152602001600020905060008060008360000154815260200190815260200160002090508060040160009054906101000a900473ffffffffffffffffffffffffffffffffffffffff1673ffffffffffffffffffffffffffffffffffffffff163373ffffffffffffffffffffffffffffffffffffffff161461040f576040517f08c379a00000000000000000000000000000000000000000000000000000000081526004016104069061101a565b60405180910390fd5b600015158160060160009054906101000a900460ff16151514610467576040517f08c379a000000000000000000000000000000000000000000000000000000000815260040161045e90611086565b60405180910390fd5b60018260030160006101000a81548160ff02191690831515021790555060018160060160006101000a81548160ff0219169083151502179055508160010160009054906101000a900473ffffffffffffffffffffffffffffffffffffffff1673ffffffffffffffffffffffffffffffffffffffff166108fc82600301549081150290604051600060405180830381858888f1935050505015801561050f573d6000803e3d6000fd5b507fcddcb64d734dc6255ee597ed6577a779ed6750a0a5ff6d20c8473d35864865dc8360405161053f9190610cc5565b60405180910390a17f02244c8529cb95e213ee542e76e7776342b3dabd10203d01472bbf4441be8929826000015460405161057a9190610cc5565b60405180910390a1505050565b60025481565b600260008154809291906105a0906110d5565b91905055506040518060e0016040528060025481526020018481526020018381526020018281526020013373ffffffffffffffffffffffffffffffffffffffff168152602001600067ffffffffffffffff81111561060157610600610cea565b5b60405190808252806020026020018201604052801561062f5781602001602082028036833780820191505090505b50815260200160001515815250600080600254815260200190815260200160002060008201518160000155602082015181600101908161066f91906112c9565b50604082015181600201908161068591906112c9565b506060820151816003015560808201518160040160006101000a81548173ffffffffffffffffffffffffffffffffffffffff021916908373ffffffffffffffffffffffffffffffffffffffff16021790555060a08201518160050190805190602001906106f3929190610a3d565b5060c08201518160060160006101000a81548160ff0219169083151502179055509050507f4d735a55ef1592186e3de98cfded1b75826f5b08a7d2777536ac6bcc9b5e8f2b600254843360405161074c9392919061139b565b60405180910390a1505050565b60008211801561076b57506002548211155b6107aa576040517f08c379a00000000000000000000000000000000000000000000000000000000081526004016107a190611425565b60405180910390fd5b600360008154809291906107bd906110d5565b919050555060405180608001604052808381526020013373ffffffffffffffffffffffffffffffffffffffff168152602001828152602001600015158152506001600060035481526020019081526020016000206000820151816000015560208201518160010160006101000a81548173ffffffffffffffffffffffffffffffffffffffff021916908373ffffffffffffffffffffffffffffffffffffffff160217905550604082015181600201908161087791906112c9565b5060608201518160030160006101000a81548160ff021916908315150217905550905050600080838152602001908152602001600020600501339080600181540180825580915050600190039060005260206000200160009091909190916101000a81548173ffffffffffffffffffffffffffffffffffffffff021916908373ffffffffffffffffffffffffffffffffffffffff1602179055507f862172c1856d6b588026101607e70e39488af9e58219c3e91138d584a2b2eca5600354833360405161094693929190611445565b60405180910390a15050565b60016020528060005260406000206000915090508060000154908060010160009054906101000a900473ffffffffffffffffffffffffffffffffffffffff16908060020180546109a190610f77565b80601f01602080910402602001604051908101604052809291908181526020018280546109cd90610f77565b8015610a1a5780601f106109ef57610100808354040283529160200191610a1a565b820191906000526020600020905b8154815290600101906020018083116109fd57829003601f168201915b5050505050908060030160009054906101000a900460ff16905084565b60035481565b828054828255906000526020600020908101928215610ab6579160200282015b82811115610ab55782518260006101000a81548173ffffffffffffffffffffffffffffffffffffffff021916908373ffffffffffffffffffffffffffffffffffffffff16021790555091602001919060010190610a5d565b5b509050610ac39190610ac7565b5090565b5b80821115610ae0576000816000905550600101610ac8565b5090565b6000604051905090565b600080fd5b600080fd5b6000819050919050565b610b0b81610af8565b8114610b1657600080fd5b50565b600081359050610b2881610b02565b92915050565b600060208284031215610b4457610b43610aee565b5b6000610b5284828501610b19565b91505092915050565b610b6481610af8565b82525050565b600081519050919050565b600082825260208201905092915050565b60005b83811015610ba4578082015181840152602081019050610b89565b60008484015250505050565b6000601f19601f8301169050919050565b6000610bcc82610b6a565b610bd68185610b75565b9350610be6818560208601610b86565b610bef81610bb0565b840191505092915050565b600073ffffffffffffffffffffffffffffffffffffffff82169050919050565b6000610c2582610bfa565b9050919050565b610c3581610c1a565b82525050565b60008115159050919050565b610c5081610c3b565b82525050565b600060c082019050610c6b6000830189610b5b565b8181036020830152610c7d8188610bc1565b90508181036040830152610c918187610bc1565b9050610ca06060830186610b5b565b610cad6080830185610c2c565b610cba60a0830184610c47565b979650505050505050565b6000602082019050610cda6000830184610b5b565b92915050565b600080fd5b600080fd5b7f4e487b7100000000000000000000000000000000000000000000000000000000600052604160045260246000fd5b610d2282610bb0565b810181811067ffffffffffffffff82111715610d4157610d40610cea565b5b80604052505050565b6000610d54610ae4565b9050610d608282610d19565b919050565b600067ffffffffffffffff821115610d8057610d7f610cea565b5b610d8982610bb0565b9050602081019050919050565b82818337600083830152505050565b6000610db8610db384610d65565b610d4a565b905082815260208101848484011115610dd457610dd3610ce5565b5b610ddf848285610d96565b509392505050565b600082601f830112610dfc57610dfb610ce0565b5b8135610e0c848260208601610da5565b91505092915050565b600080600060608486031215610e2e57610e2d610aee565b5b600084013567ffffffffffffffff811115610e4c57610e4b610af3565b5b610e5886828701610de7565b935050602084013567ffffffffffffffff811115610e7957610e78610af3565b5b610e8586828701610de7565b9250506040610e9686828701610b19565b9150509250925092565b60008060408385031215610eb757610eb6610aee565b5b6000610ec585828601610b19565b925050602083013567ffffffffffffffff811115610ee657610ee5610af3565b5b610ef285828601610de7565b9150509250929050565b6000608082019050610f116000830187610b5b565b610f1e6020830186610c2c565b8181036040830152610f308185610bc1565b9050610f3f6060830184610c47565b95945050505050565b7f4e487b7100000000000000000000000000000000000000000000000000000000600052602260045260246000fd5b60006002820490506001821680610f8f57607f821691505b602082108103610fa257610fa1610f48565b5b50919050565b7f4f6e6c7920656d706c6f7965722063616e20616363657074206170706c69636160008201527f74696f6e73000000000000000000000000000000000000000000000000000000602082015250565b6000611004602583610b75565b915061100f82610fa8565b604082019050919050565b6000602082019050818103600083015261103381610ff7565b9050919050565b7f4a6f6220697320616c726561647920636f6d706c657465640000000000000000600082015250565b6000611070601883610b75565b915061107b8261103a565b602082019050919050565b6000602082019050818103600083015261109f81611063565b9050919050565b7f4e487b7100000000000000000000000000000000000000000000000000000000600052601160045260246000fd5b60006110e082610af8565b91507fffffffffffffffffffffffffffffffffffffffffffffffffffffffffffffffff8203611112576111116110a6565b5b600182019050919050565b60008190508160005260206000209050919050565b60006020601f8301049050919050565b600082821b905092915050565b60006008830261117f7fffffffffffffffffffffffffffffffffffffffffffffffffffffffffffffffff82611142565b6111898683611142565b95508019841693508086168417925050509392505050565b6000819050919050565b60006111c66111c16111bc84610af8565b6111a1565b610af8565b9050919050565b6000819050919050565b6111e0836111ab565b6111f46111ec826111cd565b84845461114f565b825550505050565b600090565b6112096111fc565b6112148184846111d7565b505050565b5b818110156112385761122d600082611201565b60018101905061121a565b5050565b601f82111561127d5761124e8161111d565b61125784611132565b81016020851015611266578190505b61127a61127285611132565b830182611219565b50505b505050565b600082821c905092915050565b60006112a060001984600802611282565b1980831691505092915050565b60006112b9838361128f565b9150826002028217905092915050565b6112d282610b6a565b67ffffffffffffffff8111156112eb576112ea610cea565b5b6112f58254610f77565b61130082828561123c565b600060209050601f8311600181146113335760008415611321578287015190505b61132b85826112ad565b865550611393565b601f1984166113418661111d565b60005b8281101561136957848901518255600182019150602085019450602081019050611344565b868310156113865784890151611382601f89168261128f565b8355505b6001600288020188555050505b505050505050565b60006060820190506113b06000830186610b5b565b81810360208301526113c28185610bc1565b90506113d16040830184610c2c565b949350505050565b7f496e76616c6964206a6f62204944000000000000000000000000000000000000600082015250565b600061140f600e83610b75565b915061141a826113d9565b602082019050919050565b6000602082019050818103600083015261143e81611402565b9050919050565b600060608201905061145a6000830186610b5b565b6114676020830185610b5b565b6114746040830184610c2c565b94935050505056fea2646970667358221220fcb73b65129228598fd4c5b4a64e44a24234cbaef9ea160877d33ecbb00b8b9464736f6c63430008180033",
  "linkReferences": {},
  "deployedLinkReferences": {}
}