{
  "_format": "hh-sol-artifact-1",
  "contractName": "Staking",
  "sourceName": "contracts/Staking.sol",
  "abi": [
    {
      "inputs": [
        {
          "internalType": "string",
          "name": "name_",
          "type": "string"
        },
        {
          "internalType": "address",
          "name": "mainTokenAddress",
          "type": "address"
        },
        {
          "internalType": "address",
          "name": "jobTokenAddress",
          "type": "address"
        },
        {
          "internalType": "uint64",
          "name": "rate_",
          "type": "uint64"
        }
      ],
      "stateMutability": "nonpayable",
      "type": "constructor"
    },
    {
      "anonymous": false,
      "inputs": [
        {
          "indexed": true,
          "internalType": "address",
          "name": "previousOwner",
          "type": "address"
        },
        {
          "indexed": true,
          "internalType": "address",
          "name": "newOwner",
          "type": "address"
        }
      ],
      "name": "OwnershipTransferred",
      "type": "event"
    },
    {
      "anonymous": false,
      "inputs": [
        {
          "indexed": true,
          "internalType": "address",
          "name": "token",
          "type": "address"
        },
        {
          "indexed": true,
          "internalType": "address",
          "name": "staker_",
          "type": "address"
        },
        {
          "indexed": false,
          "internalType": "uint256",
          "name": "amount_",
          "type": "uint256"
        },
        {
          "indexed": false,
          "internalType": "uint256",
          "name": "reward_",
          "type": "uint256"
        }
      ],
      "name": "PaidOut",
      "type": "event"
    },
    {
      "anonymous": false,
      "inputs": [],
      "name": "RatesChanged",
      "type": "event"
    },
    {
      "anonymous": false,
      "inputs": [
        {
          "indexed": false,
          "internalType": "uint256",
          "name": "rewards",
          "type": "uint256"
        },
        {
          "indexed": false,
          "internalType": "uint256",
          "name": "time",
          "type": "uint256"
        }
      ],
      "name": "RewardsAdded",
      "type": "event"
    },
    {
      "anonymous": false,
      "inputs": [
        {
          "indexed": true,
          "internalType": "address",
          "name": "token",
          "type": "address"
        },
        {
          "indexed": true,
          "internalType": "address",
          "name": "staker_",
          "type": "address"
        },
        {
          "indexed": false,
          "internalType": "uint256",
          "name": "stakedAmount",
          "type": "uint256"
        }
      ],
      "name": "Staked",
      "type": "event"
    },
    {
      "anonymous": false,
      "inputs": [
        {
          "indexed": false,
          "internalType": "bool",
          "name": "status",
          "type": "bool"
        },
        {
          "indexed": false,
          "internalType": "uint256",
          "name": "time",
          "type": "uint256"
        }
      ],
      "name": "StakingStopped",
      "type": "event"
    },
    {
      "inputs": [
        {
          "internalType": "bool",
          "name": "_status",
          "type": "bool"
        }
      ],
      "name": "changeStakingStatus",
      "outputs": [],
      "stateMutability": "payable",
      "type": "function"
    },
    {
      "inputs": [],
      "name": "getRates",
      "outputs": [
        {
          "components": [
            {
              "internalType": "uint64",
              "name": "newInterestRate",
              "type": "uint64"
            },
            {
              "internalType": "uint256",
              "name": "lockDuration",
              "type": "uint256"
            },
            {
              "internalType": "uint256",
              "name": "timeStamp",
              "type": "uint256"
            },
            {
              "internalType": "bool",
              "name": "active",
              "type": "bool"
            }
          ],
          "internalType": "struct Staking.Rates[]",
          "name": "",
          "type": "tuple[]"
        }
      ],
      "stateMutability": "view",
      "type": "function"
    },
    {
      "inputs": [],
      "name": "index",
      "outputs": [
        {
          "internalType": "uint64",
          "name": "",
          "type": "uint64"
        }
      ],
      "stateMutability": "view",
      "type": "function"
    },
    {
      "inputs": [],
      "name": "isStopped",
      "outputs": [
        {
          "internalType": "bool",
          "name": "",
          "type": "bool"
        }
      ],
      "stateMutability": "view",
      "type": "function"
    },
    {
      "inputs": [],
      "name": "jobToken",
      "outputs": [
        {
          "internalType": "contract IERC20",
          "name": "",
          "type": "address"
        }
      ],
      "stateMutability": "view",
      "type": "function"
    },
    {
      "inputs": [],
      "name": "mainToken",
      "outputs": [
        {
          "internalType": "contract IERC20",
          "name": "",
          "type": "address"
        }
      ],
      "stateMutability": "view",
      "type": "function"
    },
    {
      "inputs": [],
      "name": "name",
      "outputs": [
        {
          "internalType": "string",
          "name": "",
          "type": "string"
        }
      ],
      "stateMutability": "view",
      "type": "function"
    },
    {
      "inputs": [],
      "name": "owner",
      "outputs": [
        {
          "internalType": "address",
          "name": "",
          "type": "address"
        }
      ],
      "stateMutability": "view",
      "type": "function"
    },
    {
      "inputs": [
        {
          "internalType": "uint256",
          "name": "",
          "type": "uint256"
        }
      ],
      "name": "rates",
      "outputs": [
        {
          "internalType": "uint64",
          "name": "newInterestRate",
          "type": "uint64"
        },
        {
          "internalType": "uint256",
          "name": "lockDuration",
          "type": "uint256"
        },
        {
          "internalType": "uint256",
          "name": "timeStamp",
          "type": "uint256"
        },
        {
          "internalType": "bool",
          "name": "active",
          "type": "bool"
        }
      ],
      "stateMutability": "view",
      "type": "function"
    },
    {
      "inputs": [
        {
          "internalType": "uint256",
          "name": "_index",
          "type": "uint256"
        }
      ],
      "name": "removeRateAndLockduration",
      "outputs": [],
      "stateMutability": "payable",
      "type": "function"
    },
    {
      "inputs": [],
      "name": "renounceOwnership",
      "outputs": [],
      "stateMutability": "nonpayable",
      "type": "function"
    },
    {
      "inputs": [],
      "name": "rewardBalance",
      "outputs": [
        {
          "internalType": "uint256",
          "name": "",
          "type": "uint256"
        }
      ],
      "stateMutability": "view",
      "type": "function"
    },
    {
      "inputs": [
        {
          "internalType": "uint64",
          "name": "rate_",
          "type": "uint64"
        },
        {
          "internalType": "uint256",
          "name": "_duration",
          "type": "uint256"
        }
      ],
      "name": "setRateAndLockduration",
      "outputs": [],
      "stateMutability": "payable",
      "type": "function"
    },
    {
      "inputs": [
        {
          "internalType": "uint256",
          "name": "_amount",
          "type": "uint256"
        },
        {
          "internalType": "uint256",
          "name": "_index",
          "type": "uint256"
        }
      ],
      "name": "stake",
      "outputs": [],
      "stateMutability": "nonpayable",
      "type": "function"
    },
    {
      "inputs": [],
      "name": "stakedBalance",
      "outputs": [
        {
          "internalType": "uint256",
          "name": "",
          "type": "uint256"
        }
      ],
      "stateMutability": "view",
      "type": "function"
    },
    {
      "inputs": [],
      "name": "stakedTotal",
      "outputs": [
        {
          "internalType": "uint256",
          "name": "",
          "type": "uint256"
        }
      ],
      "stateMutability": "view",
      "type": "function"
    },
    {
      "inputs": [],
      "name": "tokenAddress",
      "outputs": [
        {
          "internalType": "address",
          "name": "",
          "type": "address"
        }
      ],
      "stateMutability": "view",
      "type": "function"
    },
    {
      "inputs": [],
      "name": "totalReward",
      "outputs": [
        {
          "internalType": "uint256",
          "name": "",
          "type": "uint256"
        }
      ],
      "stateMutability": "view",
      "type": "function"
    },
    {
      "inputs": [
        {
          "internalType": "address",
          "name": "newOwner",
          "type": "address"
        }
      ],
      "name": "transferOwnership",
      "outputs": [],
      "stateMutability": "nonpayable",
      "type": "function"
    },
    {
      "inputs": [
        {
          "internalType": "uint256",
          "name": "_index",
          "type": "uint256"
        }
      ],
      "name": "unstake",
      "outputs": [],
      "stateMutability": "nonpayable",
      "type": "function"
    },
    {
      "inputs": [
        {
          "internalType": "address",
          "name": "user",
          "type": "address"
        }
      ],
      "name": "userDeposits",
      "outputs": [
        {
          "components": [
            {
              "internalType": "uint256",
              "name": "depositAmount",
              "type": "uint256"
            },
            {
              "internalType": "uint256",
              "name": "depositTime",
              "type": "uint256"
            },
            {
              "internalType": "uint256",
              "name": "endTime",
              "type": "uint256"
            },
            {
              "internalType": "uint256",
              "name": "index",
              "type": "uint256"
            },
            {
              "internalType": "uint256",
              "name": "reward",
              "type": "uint256"
            },
            {
              "internalType": "bool",
              "name": "paid",
              "type": "bool"
            }
          ],
          "internalType": "struct Staking.Deposits[]",
          "name": "",
          "type": "tuple[]"
        }
      ],
      "stateMutability": "view",
      "type": "function"
    }
  ],
  "bytecode": "0x60806040523480156200001157600080fd5b50604051620029fe380380620029fe83398181016040528101906200003791906200060e565b620000576200004b6200030560201b60201c565b6200030d60201b60201c565b8360099081620000689190620008ea565b50600073ffffffffffffffffffffffffffffffffffffffff168373ffffffffffffffffffffffffffffffffffffffff1603620000db576040517f08c379a0000000000000000000000000000000000000000000000000000000008152600401620000d29062000a32565b60405180910390fd5b600073ffffffffffffffffffffffffffffffffffffffff168273ffffffffffffffffffffffffffffffffffffffff16036200014d576040517f08c379a0000000000000000000000000000000000000000000000000000000008152600401620001449062000a32565b60405180910390fd5b82600a60016101000a81548173ffffffffffffffffffffffffffffffffffffffff021916908373ffffffffffffffffffffffffffffffffffffffff16021790555081600b60006101000a81548173ffffffffffffffffffffffffffffffffffffffff021916908373ffffffffffffffffffffffffffffffffffffffff16021790555060008167ffffffffffffffff16036200021f576040517f08c379a0000000000000000000000000000000000000000000000000000000008152600401620002169062000aa4565b60405180910390fd5b600260405180608001604052808367ffffffffffffffff16815260200162278d00815260200142815260200160011515815250908060018154018082558091505060019003906000526020600020906004020160009091909190915060008201518160000160006101000a81548167ffffffffffffffff021916908367ffffffffffffffff160217905550602082015181600101556040820151816002015560608201518160030160006101000a81548160ff02191690831515021790555050506000600a60006101000a81548160ff0219169083151502179055505050505062000ac6565b600033905090565b60008060009054906101000a900473ffffffffffffffffffffffffffffffffffffffff169050816000806101000a81548173ffffffffffffffffffffffffffffffffffffffff021916908373ffffffffffffffffffffffffffffffffffffffff1602179055508173ffffffffffffffffffffffffffffffffffffffff168173ffffffffffffffffffffffffffffffffffffffff167f8be0079c531659141344cd1fd0a4f28419497f9722a3daafe3b4186f6b6457e060405160405180910390a35050565b6000604051905090565b600080fd5b600080fd5b600080fd5b600080fd5b6000601f19601f8301169050919050565b7f4e487b7100000000000000000000000000000000000000000000000000000000600052604160045260246000fd5b6200043a82620003ef565b810181811067ffffffffffffffff821117156200045c576200045b62000400565b5b80604052505050565b600062000471620003d1565b90506200047f82826200042f565b919050565b600067ffffffffffffffff821115620004a257620004a162000400565b5b620004ad82620003ef565b9050602081019050919050565b60005b83811015620004da578082015181840152602081019050620004bd565b60008484015250505050565b6000620004fd620004f78462000484565b62000465565b9050828152602081018484840111156200051c576200051b620003ea565b5b62000529848285620004ba565b509392505050565b600082601f830112620005495762000548620003e5565b5b81516200055b848260208601620004e6565b91505092915050565b600073ffffffffffffffffffffffffffffffffffffffff82169050919050565b6000620005918262000564565b9050919050565b620005a38162000584565b8114620005af57600080fd5b50565b600081519050620005c38162000598565b92915050565b600067ffffffffffffffff82169050919050565b620005e881620005c9565b8114620005f457600080fd5b50565b6000815190506200060881620005dd565b92915050565b600080600080608085870312156200062b576200062a620003db565b5b600085015167ffffffffffffffff8111156200064c576200064b620003e0565b5b6200065a8782880162000531565b94505060206200066d87828801620005b2565b93505060406200068087828801620005b2565b92505060606200069387828801620005f7565b91505092959194509250565b600081519050919050565b7f4e487b7100000000000000000000000000000000000000000000000000000000600052602260045260246000fd5b60006002820490506001821680620006f257607f821691505b602082108103620007085762000707620006aa565b5b50919050565b60008190508160005260206000209050919050565b60006020601f8301049050919050565b600082821b905092915050565b600060088302620007727fffffffffffffffffffffffffffffffffffffffffffffffffffffffffffffffff8262000733565b6200077e868362000733565b95508019841693508086168417925050509392505050565b6000819050919050565b6000819050919050565b6000620007cb620007c5620007bf8462000796565b620007a0565b62000796565b9050919050565b6000819050919050565b620007e783620007aa565b620007ff620007f682620007d2565b84845462000740565b825550505050565b600090565b6200081662000807565b62000823818484620007dc565b505050565b5b818110156200084b576200083f6000826200080c565b60018101905062000829565b5050565b601f8211156200089a5762000864816200070e565b6200086f8462000723565b810160208510156200087f578190505b620008976200088e8562000723565b83018262000828565b50505b505050565b600082821c905092915050565b6000620008bf600019846008026200089f565b1980831691505092915050565b6000620008da8383620008ac565b9150826002028217905092915050565b620008f5826200069f565b67ffffffffffffffff81111562000911576200091062000400565b5b6200091d8254620006d9565b6200092a8282856200084f565b600060209050601f8311600181146200096257600084156200094d578287015190505b620009598582620008cc565b865550620009c9565b601f19841662000972866200070e565b60005b828110156200099c5784890151825560018201915060208501945060208101905062000975565b86831015620009bc5784890151620009b8601f891682620008ac565b8355505b6001600288020188555050505b505050505050565b600082825260208201905092915050565b7f5a65726f20746f6b656e20616464726573730000000000000000000000000000600082015250565b600062000a1a601283620009d1565b915062000a2782620009e2565b602082019050919050565b6000602082019050818103600083015262000a4d8162000a0b565b9050919050565b7f5a65726f20696e74657265737420726174650000000000000000000000000000600082015250565b600062000a8c601283620009d1565b915062000a998262000a54565b602082019050919050565b6000602082019050818103600083015262000abf8162000a7d565b9050919050565b611f288062000ad66000396000f3fe60806040526004361061012a5760003560e01c80637b0472f0116100ab5780639d76ea581161006f5780639d76ea5814610390578063aa5c3ab4146103bb578063b9b5d1de146103e6578063d66692a714610402578063dd418ae21461042d578063f2fde38b1461046d5761012a565b80637b0472f0146102ca5780638da5cb5b146102f3578063901f76f81461031e5780639946e341146103495780639accab55146103655761012a565b80633f683b6a116100f25780633f683b6a146102075780633fc15f15146102325780635b9f00161461025d578063715018a614610288578063750142e61461029f5761012a565b806306fdde031461012f5780630ba36dcd1461015a5780631f0b8f1d146101975780632986c0e5146101b35780632e17de78146101de575b600080fd5b34801561013b57600080fd5b50610144610496565b6040516101519190611339565b60405180910390f35b34801561016657600080fd5b50610181600480360381019061017c91906113be565b610524565b60405161018e9190611549565b60405180910390f35b6101b160048036038101906101ac9190611597565b61060f565b005b3480156101bf57600080fd5b506101c8610684565b6040516101d591906115e7565b60405180910390f35b3480156101ea57600080fd5b5061020560048036038101906102009190611597565b61069e565b005b34801561021357600080fd5b5061021c610972565b6040516102299190611611565b60405180910390f35b34801561023e57600080fd5b50610247610985565b604051610254919061168b565b60405180910390f35b34801561026957600080fd5b506102726109ab565b60405161027f91906116b5565b60405180910390f35b34801561029457600080fd5b5061029d6109b1565b005b3480156102ab57600080fd5b506102b46109c5565b6040516102c191906116b5565b60405180910390f35b3480156102d657600080fd5b506102f160048036038101906102ec91906116d0565b6109cb565b005b3480156102ff57600080fd5b50610308610d11565b604051610315919061171f565b60405180910390f35b34801561032a57600080fd5b50610333610d3a565b604051610340919061168b565b60405180910390f35b610363600480360381019061035e9190611766565b610d60565b005b34801561037157600080fd5b5061037a610dbe565b60405161038791906118a6565b60405180910390f35b34801561039c57600080fd5b506103a5610e7e565b6040516103b2919061171f565b60405180910390f35b3480156103c757600080fd5b506103d0610ea4565b6040516103dd91906116b5565b60405180910390f35b61040060048036038101906103fb91906118f4565b610eaa565b005b34801561040e57600080fd5b50610417610fed565b60405161042491906116b5565b60405180910390f35b34801561043957600080fd5b50610454600480360381019061044f9190611597565b610ff3565b6040516104649493929190611934565b60405180910390f35b34801561047957600080fd5b50610494600480360381019061048f91906113be565b611054565b005b600980546104a3906119a8565b80601f01602080910402602001604051908101604052809291908181526020018280546104cf906119a8565b801561051c5780601f106104f15761010080835404028352916020019161051c565b820191906000526020600020905b8154815290600101906020018083116104ff57829003601f168201915b505050505081565b6060600160008373ffffffffffffffffffffffffffffffffffffffff1673ffffffffffffffffffffffffffffffffffffffff168152602001908152602001600020805480602002602001604051908101604052809291908181526020016000905b8282101561060457838290600052602060002090600602016040518060c001604052908160008201548152602001600182015481526020016002820154815260200160038201548152602001600482015481526020016005820160009054906101000a900460ff16151515158152505081526020019060010190610585565b505050509050919050565b6106176110d7565b60006002828154811061062d5761062c6119d9565b5b906000526020600020906004020160030160006101000a81548160ff0219169083151502179055507f78cba12b0486f91e9e56006df38b3ddf89277eb177ac19dc9bd8bec6f25e1c5360405160405180910390a150565b600860009054906101000a900467ffffffffffffffff1681565b600160003373ffffffffffffffffffffffffffffffffffffffff1673ffffffffffffffffffffffffffffffffffffffff16815260200190815260200160002081815481106106ef576106ee6119d9565b5b906000526020600020906006020160050160009054906101000a900460ff161561074e576040517f08c379a000000000000000000000000000000000000000000000000000000000815260040161074590611a54565b60405180910390fd5b600160003373ffffffffffffffffffffffffffffffffffffffff1673ffffffffffffffffffffffffffffffffffffffff168152602001908152602001600020818154811061079f5761079e6119d9565b5b90600052602060002090600602016002015442116107f2576040517f08c379a00000000000000000000000000000000000000000000000000000000081526004016107e990611ac0565b60405180910390fd5b600a60019054906101000a900473ffffffffffffffffffffffffffffffffffffffff1673ffffffffffffffffffffffffffffffffffffffff1663a9059cbb33600160003373ffffffffffffffffffffffffffffffffffffffff1673ffffffffffffffffffffffffffffffffffffffff1681526020019081526020016000208481548110610882576108816119d9565b5b9060005260206000209060060201600401546040518363ffffffff1660e01b81526004016108b1929190611ae0565b6020604051808303816000875af11580156108d0573d6000803e3d6000fd5b505050506040513d601f19601f820116820180604052508101906108f49190611b1e565b5060018060003373ffffffffffffffffffffffffffffffffffffffff1673ffffffffffffffffffffffffffffffffffffffff1681526020019081526020016000208281548110610947576109466119d9565b5b906000526020600020906006020160050160006101000a81548160ff02191690831515021790555050565b600a60009054906101000a900460ff1681565b600a60019054906101000a900473ffffffffffffffffffffffffffffffffffffffff1681565b60045481565b6109b96110d7565b6109c36000611155565b565b60075481565b600a60009054906101000a900460ff1615610a1b576040517f08c379a0000000000000000000000000000000000000000000000000000000008152600401610a1290611b97565b60405180910390fd5b60008211610a5e576040517f08c379a0000000000000000000000000000000000000000000000000000000008152600401610a5590611c03565b60405180910390fd5b600a60019054906101000a900473ffffffffffffffffffffffffffffffffffffffff1673ffffffffffffffffffffffffffffffffffffffff166323b872dd3330856040518463ffffffff1660e01b8152600401610abd93929190611c23565b6020604051808303816000875af1158015610adc573d6000803e3d6000fd5b505050506040513d601f19601f82011682018060405250810190610b009190611b1e565b5060006040518060c00160405280848152602001428152602001610b5260028581548110610b3157610b306119d9565b5b9060005260206000209060040201600101544261121990919063ffffffff16565b8152602001838152602001610ba08560028681548110610b7557610b746119d9565b5b906000526020600020906004020160000160009054906101000a900467ffffffffffffffff1661122f565b8152602001600015158152509050600160003373ffffffffffffffffffffffffffffffffffffffff1673ffffffffffffffffffffffffffffffffffffffff168152602001908152602001600020819080600181540180825580915050600190039060005260206000209060060201600090919091909150600082015181600001556020820151816001015560408201518160020155606082015181600301556080820151816004015560a08201518160050160006101000a81548160ff0219169083151502179055505050600b60009054906101000a900473ffffffffffffffffffffffffffffffffffffffff1673ffffffffffffffffffffffffffffffffffffffff1663a9059cbb33856040518363ffffffff1660e01b8152600401610cc8929190611ae0565b6020604051808303816000875af1158015610ce7573d6000803e3d6000fd5b505050506040513d601f19601f82011682018060405250810190610d0b9190611b1e565b50505050565b60008060009054906101000a900473ffffffffffffffffffffffffffffffffffffffff16905090565b600b60009054906101000a900473ffffffffffffffffffffffffffffffffffffffff1681565b610d686110d7565b80600a60006101000a81548160ff0219169083151502179055507f36e3f34a0ee7e675c6e4fb54887d109037e69fb0e40bffc3b86a4887960a019b8142604051610db3929190611c5a565b60405180910390a150565b60606002805480602002602001604051908101604052809291908181526020016000905b82821015610e7557838290600052602060002090600402016040518060800160405290816000820160009054906101000a900467ffffffffffffffff1667ffffffffffffffff1667ffffffffffffffff16815260200160018201548152602001600282015481526020016003820160009054906101000a900460ff16151515158152505081526020019060010190610de2565b50505050905090565b600360009054906101000a900473ffffffffffffffffffffffffffffffffffffffff1681565b60055481565b610eb26110d7565b60008267ffffffffffffffff1603610eff576040517f08c379a0000000000000000000000000000000000000000000000000000000008152600401610ef690611ccf565b60405180910390fd5b600260405180608001604052808467ffffffffffffffff16815260200142815260200183815260200160011515815250908060018154018082558091505060019003906000526020600020906004020160009091909190915060008201518160000160006101000a81548167ffffffffffffffff021916908367ffffffffffffffff160217905550602082015181600101556040820151816002015560608201518160030160006101000a81548160ff02191690831515021790555050507f78cba12b0486f91e9e56006df38b3ddf89277eb177ac19dc9bd8bec6f25e1c5360405160405180910390a15050565b60065481565b6002818154811061100357600080fd5b90600052602060002090600402016000915090508060000160009054906101000a900467ffffffffffffffff16908060010154908060020154908060030160009054906101000a900460ff16905084565b61105c6110d7565b600073ffffffffffffffffffffffffffffffffffffffff168173ffffffffffffffffffffffffffffffffffffffff16036110cb576040517f08c379a00000000000000000000000000000000000000000000000000000000081526004016110c290611d61565b60405180910390fd5b6110d481611155565b50565b6110df611275565b73ffffffffffffffffffffffffffffffffffffffff166110fd610d11565b73ffffffffffffffffffffffffffffffffffffffff1614611153576040517f08c379a000000000000000000000000000000000000000000000000000000000815260040161114a90611dcd565b60405180910390fd5b565b60008060009054906101000a900473ffffffffffffffffffffffffffffffffffffffff169050816000806101000a81548173ffffffffffffffffffffffffffffffffffffffff021916908373ffffffffffffffffffffffffffffffffffffffff1602179055508173ffffffffffffffffffffffffffffffffffffffff168173ffffffffffffffffffffffffffffffffffffffff167f8be0079c531659141344cd1fd0a4f28419497f9722a3daafe3b4186f6b6457e060405160405180910390a35050565b600081836112279190611e1c565b905092915050565b600061126d606461125f8467ffffffffffffffff1660646112509190611e1c565b8661127d90919063ffffffff16565b61129390919063ffffffff16565b905092915050565b600033905090565b6000818361128b9190611e50565b905092915050565b600081836112a19190611ec1565b905092915050565b600081519050919050565b600082825260208201905092915050565b60005b838110156112e35780820151818401526020810190506112c8565b60008484015250505050565b6000601f19601f8301169050919050565b600061130b826112a9565b61131581856112b4565b93506113258185602086016112c5565b61132e816112ef565b840191505092915050565b600060208201905081810360008301526113538184611300565b905092915050565b600080fd5b600073ffffffffffffffffffffffffffffffffffffffff82169050919050565b600061138b82611360565b9050919050565b61139b81611380565b81146113a657600080fd5b50565b6000813590506113b881611392565b92915050565b6000602082840312156113d4576113d361135b565b5b60006113e2848285016113a9565b91505092915050565b600081519050919050565b600082825260208201905092915050565b6000819050602082019050919050565b6000819050919050565b61142a81611417565b82525050565b60008115159050919050565b61144581611430565b82525050565b60c0820160008201516114616000850182611421565b5060208201516114746020850182611421565b5060408201516114876040850182611421565b50606082015161149a6060850182611421565b5060808201516114ad6080850182611421565b5060a08201516114c060a085018261143c565b50505050565b60006114d2838361144b565b60c08301905092915050565b6000602082019050919050565b60006114f6826113eb565b61150081856113f6565b935061150b83611407565b8060005b8381101561153c57815161152388826114c6565b975061152e836114de565b92505060018101905061150f565b5085935050505092915050565b6000602082019050818103600083015261156381846114eb565b905092915050565b61157481611417565b811461157f57600080fd5b50565b6000813590506115918161156b565b92915050565b6000602082840312156115ad576115ac61135b565b5b60006115bb84828501611582565b91505092915050565b600067ffffffffffffffff82169050919050565b6115e1816115c4565b82525050565b60006020820190506115fc60008301846115d8565b92915050565b61160b81611430565b82525050565b60006020820190506116266000830184611602565b92915050565b6000819050919050565b600061165161164c61164784611360565b61162c565b611360565b9050919050565b600061166382611636565b9050919050565b600061167582611658565b9050919050565b6116858161166a565b82525050565b60006020820190506116a0600083018461167c565b92915050565b6116af81611417565b82525050565b60006020820190506116ca60008301846116a6565b92915050565b600080604083850312156116e7576116e661135b565b5b60006116f585828601611582565b925050602061170685828601611582565b9150509250929050565b61171981611380565b82525050565b60006020820190506117346000830184611710565b92915050565b61174381611430565b811461174e57600080fd5b50565b6000813590506117608161173a565b92915050565b60006020828403121561177c5761177b61135b565b5b600061178a84828501611751565b91505092915050565b600081519050919050565b600082825260208201905092915050565b6000819050602082019050919050565b6117c8816115c4565b82525050565b6080820160008201516117e460008501826117bf565b5060208201516117f76020850182611421565b50604082015161180a6040850182611421565b50606082015161181d606085018261143c565b50505050565b600061182f83836117ce565b60808301905092915050565b6000602082019050919050565b600061185382611793565b61185d818561179e565b9350611868836117af565b8060005b838110156118995781516118808882611823565b975061188b8361183b565b92505060018101905061186c565b5085935050505092915050565b600060208201905081810360008301526118c08184611848565b905092915050565b6118d1816115c4565b81146118dc57600080fd5b50565b6000813590506118ee816118c8565b92915050565b6000806040838503121561190b5761190a61135b565b5b6000611919858286016118df565b925050602061192a85828601611582565b9150509250929050565b600060808201905061194960008301876115d8565b61195660208301866116a6565b61196360408301856116a6565b6119706060830184611602565b95945050505050565b7f4e487b7100000000000000000000000000000000000000000000000000000000600052602260045260246000fd5b600060028204905060018216806119c057607f821691505b6020821081036119d3576119d2611979565b5b50919050565b7f4e487b7100000000000000000000000000000000000000000000000000000000600052603260045260246000fd5b7f616c726561647920756e7374616b656400000000000000000000000000000000600082015250565b6000611a3e6010836112b4565b9150611a4982611a08565b602082019050919050565b60006020820190508181036000830152611a6d81611a31565b9050919050565b7f63616e277420756e7374616b6520796574000000000000000000000000000000600082015250565b6000611aaa6011836112b4565b9150611ab582611a74565b602082019050919050565b60006020820190508181036000830152611ad981611a9d565b9050919050565b6000604082019050611af56000830185611710565b611b0260208301846116a6565b9392505050565b600081519050611b188161173a565b92915050565b600060208284031215611b3457611b3361135b565b5b6000611b4284828501611b09565b91505092915050565b7f6e6f74207374616b696e6720706572696f640000000000000000000000000000600082015250565b6000611b816012836112b4565b9150611b8c82611b4b565b602082019050919050565b60006020820190508181036000830152611bb081611b74565b9050919050565b7f43616e6e6f74207374616b65203020746f6b656e730000000000000000000000600082015250565b6000611bed6015836112b4565b9150611bf882611bb7565b602082019050919050565b60006020820190508181036000830152611c1c81611be0565b9050919050565b6000606082019050611c386000830186611710565b611c456020830185611710565b611c5260408301846116a6565b949350505050565b6000604082019050611c6f6000830185611602565b611c7c60208301846116a6565b9392505050565b7f5a65726f20696e74657265737420726174650000000000000000000000000000600082015250565b6000611cb96012836112b4565b9150611cc482611c83565b602082019050919050565b60006020820190508181036000830152611ce881611cac565b9050919050565b7f4f776e61626c653a206e6577206f776e657220697320746865207a65726f206160008201527f6464726573730000000000000000000000000000000000000000000000000000602082015250565b6000611d4b6026836112b4565b9150611d5682611cef565b604082019050919050565b60006020820190508181036000830152611d7a81611d3e565b9050919050565b7f4f776e61626c653a2063616c6c6572206973206e6f7420746865206f776e6572600082015250565b6000611db76020836112b4565b9150611dc282611d81565b602082019050919050565b60006020820190508181036000830152611de681611daa565b9050919050565b7f4e487b7100000000000000000000000000000000000000000000000000000000600052601160045260246000fd5b6000611e2782611417565b9150611e3283611417565b9250828201905080821115611e4a57611e49611ded565b5b92915050565b6000611e5b82611417565b9150611e6683611417565b9250828202611e7481611417565b91508282048414831517611e8b57611e8a611ded565b5b5092915050565b7f4e487b7100000000000000000000000000000000000000000000000000000000600052601260045260246000fd5b6000611ecc82611417565b9150611ed783611417565b925082611ee757611ee6611e92565b5b82820490509291505056fea26469706673582212207ac1653bebed4665f88dd798de0288724b98b4fb5acf6abb56a9757dfdb3104f64736f6c63430008180033",
  "linkReferences": {},
  "deployedLinkReferences": {}
}