{
  "_format": "hh-sol-artifact-1",
  "contractName": "Staking",
  "sourceName": "contracts/Staking.sol",
  "abi": [
    {
      "inputs": [
        {
          "internalType": "string",
          "name": "name_",
          "type": "string"
        },
        {
          "internalType": "address",
          "name": "mainTokenAddress",
          "type": "address"
        },
        {
          "internalType": "address",
          "name": "jobTokenAddress",
          "type": "address"
        },
        {
          "internalType": "uint64",
          "name": "rate_",
          "type": "uint64"
        }
      ],
      "stateMutability": "nonpayable",
      "type": "constructor"
    },
    {
      "anonymous": false,
      "inputs": [
        {
          "indexed": true,
          "internalType": "address",
          "name": "previousOwner",
          "type": "address"
        },
        {
          "indexed": true,
          "internalType": "address",
          "name": "newOwner",
          "type": "address"
        }
      ],
      "name": "OwnershipTransferred",
      "type": "event"
    },
    {
      "anonymous": false,
      "inputs": [
        {
          "indexed": true,
          "internalType": "address",
          "name": "token",
          "type": "address"
        },
        {
          "indexed": true,
          "internalType": "address",
          "name": "staker_",
          "type": "address"
        },
        {
          "indexed": false,
          "internalType": "uint256",
          "name": "amount_",
          "type": "uint256"
        },
        {
          "indexed": false,
          "internalType": "uint256",
          "name": "reward_",
          "type": "uint256"
        }
      ],
      "name": "PaidOut",
      "type": "event"
    },
    {
      "anonymous": false,
      "inputs": [],
      "name": "RatesChanged",
      "type": "event"
    },
    {
      "anonymous": false,
      "inputs": [
        {
          "indexed": false,
          "internalType": "uint256",
          "name": "rewards",
          "type": "uint256"
        },
        {
          "indexed": false,
          "internalType": "uint256",
          "name": "time",
          "type": "uint256"
        }
      ],
      "name": "RewardsAdded",
      "type": "event"
    },
    {
      "anonymous": false,
      "inputs": [
        {
          "indexed": true,
          "internalType": "address",
          "name": "token",
          "type": "address"
        },
        {
          "indexed": true,
          "internalType": "address",
          "name": "staker_",
          "type": "address"
        },
        {
          "indexed": false,
          "internalType": "uint256",
          "name": "stakedAmount",
          "type": "uint256"
        }
      ],
      "name": "Staked",
      "type": "event"
    },
    {
      "anonymous": false,
      "inputs": [
        {
          "indexed": false,
          "internalType": "bool",
          "name": "status",
          "type": "bool"
        },
        {
          "indexed": false,
          "internalType": "uint256",
          "name": "time",
          "type": "uint256"
        }
      ],
      "name": "StakingStopped",
      "type": "event"
    },
    {
      "inputs": [
        {
          "internalType": "bool",
          "name": "_status",
          "type": "bool"
        }
      ],
      "name": "changeStakingStatus",
      "outputs": [],
      "stateMutability": "nonpayable",
      "type": "function"
    },
    {
      "inputs": [],
      "name": "getRates",
      "outputs": [
        {
          "components": [
            {
              "internalType": "uint64",
              "name": "newInterestRate",
              "type": "uint64"
            },
            {
              "internalType": "uint256",
              "name": "lockDuration",
              "type": "uint256"
            },
            {
              "internalType": "uint256",
              "name": "timeStamp",
              "type": "uint256"
            },
            {
              "internalType": "bool",
              "name": "active",
              "type": "bool"
            }
          ],
          "internalType": "struct Staking.Rates[]",
          "name": "",
          "type": "tuple[]"
        }
      ],
      "stateMutability": "view",
      "type": "function"
    },
    {
      "inputs": [],
      "name": "index",
      "outputs": [
        {
          "internalType": "uint64",
          "name": "",
          "type": "uint64"
        }
      ],
      "stateMutability": "view",
      "type": "function"
    },
    {
      "inputs": [],
      "name": "isStopped",
      "outputs": [
        {
          "internalType": "bool",
          "name": "",
          "type": "bool"
        }
      ],
      "stateMutability": "view",
      "type": "function"
    },
    {
      "inputs": [],
      "name": "jobToken",
      "outputs": [
        {
          "internalType": "contract IERC20",
          "name": "",
          "type": "address"
        }
      ],
      "stateMutability": "view",
      "type": "function"
    },
    {
      "inputs": [],
      "name": "mainToken",
      "outputs": [
        {
          "internalType": "contract IERC20",
          "name": "",
          "type": "address"
        }
      ],
      "stateMutability": "view",
      "type": "function"
    },
    {
      "inputs": [],
      "name": "name",
      "outputs": [
        {
          "internalType": "string",
          "name": "",
          "type": "string"
        }
      ],
      "stateMutability": "view",
      "type": "function"
    },
    {
      "inputs": [],
      "name": "owner",
      "outputs": [
        {
          "internalType": "address",
          "name": "",
          "type": "address"
        }
      ],
      "stateMutability": "view",
      "type": "function"
    },
    {
      "inputs": [
        {
          "internalType": "uint256",
          "name": "",
          "type": "uint256"
        }
      ],
      "name": "rates",
      "outputs": [
        {
          "internalType": "uint64",
          "name": "newInterestRate",
          "type": "uint64"
        },
        {
          "internalType": "uint256",
          "name": "lockDuration",
          "type": "uint256"
        },
        {
          "internalType": "uint256",
          "name": "timeStamp",
          "type": "uint256"
        },
        {
          "internalType": "bool",
          "name": "active",
          "type": "bool"
        }
      ],
      "stateMutability": "view",
      "type": "function"
    },
    {
      "inputs": [
        {
          "internalType": "uint256",
          "name": "_index",
          "type": "uint256"
        }
      ],
      "name": "removeRateAndLockduration",
      "outputs": [],
      "stateMutability": "nonpayable",
      "type": "function"
    },
    {
      "inputs": [],
      "name": "renounceOwnership",
      "outputs": [],
      "stateMutability": "nonpayable",
      "type": "function"
    },
    {
      "inputs": [],
      "name": "rewardBalance",
      "outputs": [
        {
          "internalType": "uint256",
          "name": "",
          "type": "uint256"
        }
      ],
      "stateMutability": "view",
      "type": "function"
    },
    {
      "inputs": [
        {
          "internalType": "uint64",
          "name": "rate_",
          "type": "uint64"
        },
        {
          "internalType": "uint256",
          "name": "_duration",
          "type": "uint256"
        }
      ],
      "name": "setRateAndLockduration",
      "outputs": [],
      "stateMutability": "nonpayable",
      "type": "function"
    },
    {
      "inputs": [
        {
          "internalType": "uint256",
          "name": "_amount",
          "type": "uint256"
        },
        {
          "internalType": "uint256",
          "name": "_index",
          "type": "uint256"
        }
      ],
      "name": "stake",
      "outputs": [],
      "stateMutability": "nonpayable",
      "type": "function"
    },
    {
      "inputs": [],
      "name": "stakedBalance",
      "outputs": [
        {
          "internalType": "uint256",
          "name": "",
          "type": "uint256"
        }
      ],
      "stateMutability": "view",
      "type": "function"
    },
    {
      "inputs": [],
      "name": "stakedTotal",
      "outputs": [
        {
          "internalType": "uint256",
          "name": "",
          "type": "uint256"
        }
      ],
      "stateMutability": "view",
      "type": "function"
    },
    {
      "inputs": [],
      "name": "tokenAddress",
      "outputs": [
        {
          "internalType": "address",
          "name": "",
          "type": "address"
        }
      ],
      "stateMutability": "view",
      "type": "function"
    },
    {
      "inputs": [],
      "name": "totalReward",
      "outputs": [
        {
          "internalType": "uint256",
          "name": "",
          "type": "uint256"
        }
      ],
      "stateMutability": "view",
      "type": "function"
    },
    {
      "inputs": [
        {
          "internalType": "address",
          "name": "newOwner",
          "type": "address"
        }
      ],
      "name": "transferOwnership",
      "outputs": [],
      "stateMutability": "nonpayable",
      "type": "function"
    },
    {
      "inputs": [
        {
          "internalType": "uint256",
          "name": "_index",
          "type": "uint256"
        }
      ],
      "name": "unstake",
      "outputs": [],
      "stateMutability": "nonpayable",
      "type": "function"
    },
    {
      "inputs": [
        {
          "internalType": "address",
          "name": "user",
          "type": "address"
        }
      ],
      "name": "userDeposits",
      "outputs": [
        {
          "components": [
            {
              "internalType": "uint256",
              "name": "depositAmount",
              "type": "uint256"
            },
            {
              "internalType": "uint256",
              "name": "depositTime",
              "type": "uint256"
            },
            {
              "internalType": "uint256",
              "name": "endTime",
              "type": "uint256"
            },
            {
              "internalType": "uint256",
              "name": "index",
              "type": "uint256"
            },
            {
              "internalType": "uint256",
              "name": "reward",
              "type": "uint256"
            },
            {
              "internalType": "bool",
              "name": "paid",
              "type": "bool"
            }
          ],
          "internalType": "struct Staking.Deposits[]",
          "name": "",
          "type": "tuple[]"
        }
      ],
      "stateMutability": "view",
      "type": "function"
    }
  ],
  "bytecode": "0x60806040523480156200001157600080fd5b50604051620029213803806200292183398181016040528101906200003791906200060e565b620000576200004b6200030560201b60201c565b6200030d60201b60201c565b8360099081620000689190620008ea565b50600073ffffffffffffffffffffffffffffffffffffffff168373ffffffffffffffffffffffffffffffffffffffff1603620000db576040517f08c379a0000000000000000000000000000000000000000000000000000000008152600401620000d29062000a32565b60405180910390fd5b600073ffffffffffffffffffffffffffffffffffffffff168273ffffffffffffffffffffffffffffffffffffffff16036200014d576040517f08c379a0000000000000000000000000000000000000000000000000000000008152600401620001449062000a32565b60405180910390fd5b82600a60016101000a81548173ffffffffffffffffffffffffffffffffffffffff021916908373ffffffffffffffffffffffffffffffffffffffff16021790555081600b60006101000a81548173ffffffffffffffffffffffffffffffffffffffff021916908373ffffffffffffffffffffffffffffffffffffffff16021790555060008167ffffffffffffffff16036200021f576040517f08c379a0000000000000000000000000000000000000000000000000000000008152600401620002169062000aa4565b60405180910390fd5b600260405180608001604052808367ffffffffffffffff16815260200162278d00815260200142815260200160011515815250908060018154018082558091505060019003906000526020600020906004020160009091909190915060008201518160000160006101000a81548167ffffffffffffffff021916908367ffffffffffffffff160217905550602082015181600101556040820151816002015560608201518160030160006101000a81548160ff02191690831515021790555050506000600a60006101000a81548160ff0219169083151502179055505050505062000ac6565b600033905090565b60008060009054906101000a900473ffffffffffffffffffffffffffffffffffffffff169050816000806101000a81548173ffffffffffffffffffffffffffffffffffffffff021916908373ffffffffffffffffffffffffffffffffffffffff1602179055508173ffffffffffffffffffffffffffffffffffffffff168173ffffffffffffffffffffffffffffffffffffffff167f8be0079c531659141344cd1fd0a4f28419497f9722a3daafe3b4186f6b6457e060405160405180910390a35050565b6000604051905090565b600080fd5b600080fd5b600080fd5b600080fd5b6000601f19601f8301169050919050565b7f4e487b7100000000000000000000000000000000000000000000000000000000600052604160045260246000fd5b6200043a82620003ef565b810181811067ffffffffffffffff821117156200045c576200045b62000400565b5b80604052505050565b600062000471620003d1565b90506200047f82826200042f565b919050565b600067ffffffffffffffff821115620004a257620004a162000400565b5b620004ad82620003ef565b9050602081019050919050565b60005b83811015620004da578082015181840152602081019050620004bd565b60008484015250505050565b6000620004fd620004f78462000484565b62000465565b9050828152602081018484840111156200051c576200051b620003ea565b5b62000529848285620004ba565b509392505050565b600082601f830112620005495762000548620003e5565b5b81516200055b848260208601620004e6565b91505092915050565b600073ffffffffffffffffffffffffffffffffffffffff82169050919050565b6000620005918262000564565b9050919050565b620005a38162000584565b8114620005af57600080fd5b50565b600081519050620005c38162000598565b92915050565b600067ffffffffffffffff82169050919050565b620005e881620005c9565b8114620005f457600080fd5b50565b6000815190506200060881620005dd565b92915050565b600080600080608085870312156200062b576200062a620003db565b5b600085015167ffffffffffffffff8111156200064c576200064b620003e0565b5b6200065a8782880162000531565b94505060206200066d87828801620005b2565b93505060406200068087828801620005b2565b92505060606200069387828801620005f7565b91505092959194509250565b600081519050919050565b7f4e487b7100000000000000000000000000000000000000000000000000000000600052602260045260246000fd5b60006002820490506001821680620006f257607f821691505b602082108103620007085762000707620006aa565b5b50919050565b60008190508160005260206000209050919050565b60006020601f8301049050919050565b600082821b905092915050565b600060088302620007727fffffffffffffffffffffffffffffffffffffffffffffffffffffffffffffffff8262000733565b6200077e868362000733565b95508019841693508086168417925050509392505050565b6000819050919050565b6000819050919050565b6000620007cb620007c5620007bf8462000796565b620007a0565b62000796565b9050919050565b6000819050919050565b620007e783620007aa565b620007ff620007f682620007d2565b84845462000740565b825550505050565b600090565b6200081662000807565b62000823818484620007dc565b505050565b5b818110156200084b576200083f6000826200080c565b60018101905062000829565b5050565b601f8211156200089a5762000864816200070e565b6200086f8462000723565b810160208510156200087f578190505b620008976200088e8562000723565b83018262000828565b50505b505050565b600082821c905092915050565b6000620008bf600019846008026200089f565b1980831691505092915050565b6000620008da8383620008ac565b9150826002028217905092915050565b620008f5826200069f565b67ffffffffffffffff81111562000911576200091062000400565b5b6200091d8254620006d9565b6200092a8282856200084f565b600060209050601f8311600181146200096257600084156200094d578287015190505b620009598582620008cc565b865550620009c9565b601f19841662000972866200070e565b60005b828110156200099c5784890151825560018201915060208501945060208101905062000975565b86831015620009bc5784890151620009b8601f891682620008ac565b8355505b6001600288020188555050505b505050505050565b600082825260208201905092915050565b7f5a65726f20746f6b656e20616464726573730000000000000000000000000000600082015250565b600062000a1a601283620009d1565b915062000a2782620009e2565b602082019050919050565b6000602082019050818103600083015262000a4d8162000a0b565b9050919050565b7f5a65726f20696e74657265737420726174650000000000000000000000000000600082015250565b600062000a8c601283620009d1565b915062000a998262000a54565b602082019050919050565b6000602082019050818103600083015262000abf8162000a7d565b9050919050565b611e4b8062000ad66000396000f3fe608060405234801561001057600080fd5b50600436106101375760003560e01c80637b0472f0116100b85780639d76ea581161007c5780639d76ea58146102f4578063aa5c3ab414610312578063b9b5d1de14610330578063d66692a71461034c578063dd418ae21461036a578063f2fde38b1461039d57610137565b80637b0472f0146102625780638da5cb5b1461027e578063901f76f81461029c5780639946e341146102ba5780639accab55146102d657610137565b80633f683b6a116100ff5780633f683b6a146101e05780633fc15f15146101fe5780635b9f00161461021c578063715018a61461023a578063750142e61461024457610137565b806306fdde031461013c5780630ba36dcd1461015a5780631f0b8f1d1461018a5780632986c0e5146101a65780632e17de78146101c4575b600080fd5b6101446103b9565b604051610151919061125c565b60405180910390f35b610174600480360381019061016f91906112e1565b610447565b604051610181919061146c565b60405180910390f35b6101a4600480360381019061019f91906114ba565b610532565b005b6101ae6105a7565b6040516101bb919061150a565b60405180910390f35b6101de60048036038101906101d991906114ba565b6105c1565b005b6101e8610895565b6040516101f59190611534565b60405180910390f35b6102066108a8565b60405161021391906115ae565b60405180910390f35b6102246108ce565b60405161023191906115d8565b60405180910390f35b6102426108d4565b005b61024c6108e8565b60405161025991906115d8565b60405180910390f35b61027c600480360381019061027791906115f3565b6108ee565b005b610286610c34565b6040516102939190611642565b60405180910390f35b6102a4610c5d565b6040516102b191906115ae565b60405180910390f35b6102d460048036038101906102cf9190611689565b610c83565b005b6102de610ce1565b6040516102eb91906117c9565b60405180910390f35b6102fc610da1565b6040516103099190611642565b60405180910390f35b61031a610dc7565b60405161032791906115d8565b60405180910390f35b61034a60048036038101906103459190611817565b610dcd565b005b610354610f10565b60405161036191906115d8565b60405180910390f35b610384600480360381019061037f91906114ba565b610f16565b6040516103949493929190611857565b60405180910390f35b6103b760048036038101906103b291906112e1565b610f77565b005b600980546103c6906118cb565b80601f01602080910402602001604051908101604052809291908181526020018280546103f2906118cb565b801561043f5780601f106104145761010080835404028352916020019161043f565b820191906000526020600020905b81548152906001019060200180831161042257829003601f168201915b505050505081565b6060600160008373ffffffffffffffffffffffffffffffffffffffff1673ffffffffffffffffffffffffffffffffffffffff168152602001908152602001600020805480602002602001604051908101604052809291908181526020016000905b8282101561052757838290600052602060002090600602016040518060c001604052908160008201548152602001600182015481526020016002820154815260200160038201548152602001600482015481526020016005820160009054906101000a900460ff161515151581525050815260200190600101906104a8565b505050509050919050565b61053a610ffa565b6000600282815481106105505761054f6118fc565b5b906000526020600020906004020160030160006101000a81548160ff0219169083151502179055507f78cba12b0486f91e9e56006df38b3ddf89277eb177ac19dc9bd8bec6f25e1c5360405160405180910390a150565b600860009054906101000a900467ffffffffffffffff1681565b600160003373ffffffffffffffffffffffffffffffffffffffff1673ffffffffffffffffffffffffffffffffffffffff1681526020019081526020016000208181548110610612576106116118fc565b5b906000526020600020906006020160050160009054906101000a900460ff1615610671576040517f08c379a000000000000000000000000000000000000000000000000000000000815260040161066890611977565b60405180910390fd5b600160003373ffffffffffffffffffffffffffffffffffffffff1673ffffffffffffffffffffffffffffffffffffffff16815260200190815260200160002081815481106106c2576106c16118fc565b5b9060005260206000209060060201600201544211610715576040517f08c379a000000000000000000000000000000000000000000000000000000000815260040161070c906119e3565b60405180910390fd5b600a60019054906101000a900473ffffffffffffffffffffffffffffffffffffffff1673ffffffffffffffffffffffffffffffffffffffff1663a9059cbb33600160003373ffffffffffffffffffffffffffffffffffffffff1673ffffffffffffffffffffffffffffffffffffffff16815260200190815260200160002084815481106107a5576107a46118fc565b5b9060005260206000209060060201600401546040518363ffffffff1660e01b81526004016107d4929190611a03565b6020604051808303816000875af11580156107f3573d6000803e3d6000fd5b505050506040513d601f19601f820116820180604052508101906108179190611a41565b5060018060003373ffffffffffffffffffffffffffffffffffffffff1673ffffffffffffffffffffffffffffffffffffffff168152602001908152602001600020828154811061086a576108696118fc565b5b906000526020600020906006020160050160006101000a81548160ff02191690831515021790555050565b600a60009054906101000a900460ff1681565b600a60019054906101000a900473ffffffffffffffffffffffffffffffffffffffff1681565b60045481565b6108dc610ffa565b6108e66000611078565b565b60075481565b600a60009054906101000a900460ff161561093e576040517f08c379a000000000000000000000000000000000000000000000000000000000815260040161093590611aba565b60405180910390fd5b60008211610981576040517f08c379a000000000000000000000000000000000000000000000000000000000815260040161097890611b26565b60405180910390fd5b600a60019054906101000a900473ffffffffffffffffffffffffffffffffffffffff1673ffffffffffffffffffffffffffffffffffffffff166323b872dd3330856040518463ffffffff1660e01b81526004016109e093929190611b46565b6020604051808303816000875af11580156109ff573d6000803e3d6000fd5b505050506040513d601f19601f82011682018060405250810190610a239190611a41565b5060006040518060c00160405280848152602001428152602001610a7560028581548110610a5457610a536118fc565b5b9060005260206000209060040201600101544261113c90919063ffffffff16565b8152602001838152602001610ac38560028681548110610a9857610a976118fc565b5b906000526020600020906004020160000160009054906101000a900467ffffffffffffffff16611152565b8152602001600015158152509050600160003373ffffffffffffffffffffffffffffffffffffffff1673ffffffffffffffffffffffffffffffffffffffff168152602001908152602001600020819080600181540180825580915050600190039060005260206000209060060201600090919091909150600082015181600001556020820151816001015560408201518160020155606082015181600301556080820151816004015560a08201518160050160006101000a81548160ff0219169083151502179055505050600b60009054906101000a900473ffffffffffffffffffffffffffffffffffffffff1673ffffffffffffffffffffffffffffffffffffffff1663a9059cbb33856040518363ffffffff1660e01b8152600401610beb929190611a03565b6020604051808303816000875af1158015610c0a573d6000803e3d6000fd5b505050506040513d601f19601f82011682018060405250810190610c2e9190611a41565b50505050565b60008060009054906101000a900473ffffffffffffffffffffffffffffffffffffffff16905090565b600b60009054906101000a900473ffffffffffffffffffffffffffffffffffffffff1681565b610c8b610ffa565b80600a60006101000a81548160ff0219169083151502179055507f36e3f34a0ee7e675c6e4fb54887d109037e69fb0e40bffc3b86a4887960a019b8142604051610cd6929190611b7d565b60405180910390a150565b60606002805480602002602001604051908101604052809291908181526020016000905b82821015610d9857838290600052602060002090600402016040518060800160405290816000820160009054906101000a900467ffffffffffffffff1667ffffffffffffffff1667ffffffffffffffff16815260200160018201548152602001600282015481526020016003820160009054906101000a900460ff16151515158152505081526020019060010190610d05565b50505050905090565b600360009054906101000a900473ffffffffffffffffffffffffffffffffffffffff1681565b60055481565b610dd5610ffa565b60008267ffffffffffffffff1603610e22576040517f08c379a0000000000000000000000000000000000000000000000000000000008152600401610e1990611bf2565b60405180910390fd5b600260405180608001604052808467ffffffffffffffff16815260200183815260200142815260200160011515815250908060018154018082558091505060019003906000526020600020906004020160009091909190915060008201518160000160006101000a81548167ffffffffffffffff021916908367ffffffffffffffff160217905550602082015181600101556040820151816002015560608201518160030160006101000a81548160ff02191690831515021790555050507f78cba12b0486f91e9e56006df38b3ddf89277eb177ac19dc9bd8bec6f25e1c5360405160405180910390a15050565b60065481565b60028181548110610f2657600080fd5b90600052602060002090600402016000915090508060000160009054906101000a900467ffffffffffffffff16908060010154908060020154908060030160009054906101000a900460ff16905084565b610f7f610ffa565b600073ffffffffffffffffffffffffffffffffffffffff168173ffffffffffffffffffffffffffffffffffffffff1603610fee576040517f08c379a0000000000000000000000000000000000000000000000000000000008152600401610fe590611c84565b60405180910390fd5b610ff781611078565b50565b611002611198565b73ffffffffffffffffffffffffffffffffffffffff16611020610c34565b73ffffffffffffffffffffffffffffffffffffffff1614611076576040517f08c379a000000000000000000000000000000000000000000000000000000000815260040161106d90611cf0565b60405180910390fd5b565b60008060009054906101000a900473ffffffffffffffffffffffffffffffffffffffff169050816000806101000a81548173ffffffffffffffffffffffffffffffffffffffff021916908373ffffffffffffffffffffffffffffffffffffffff1602179055508173ffffffffffffffffffffffffffffffffffffffff168173ffffffffffffffffffffffffffffffffffffffff167f8be0079c531659141344cd1fd0a4f28419497f9722a3daafe3b4186f6b6457e060405160405180910390a35050565b6000818361114a9190611d3f565b905092915050565b600061119060646111828467ffffffffffffffff1660646111739190611d3f565b866111a090919063ffffffff16565b6111b690919063ffffffff16565b905092915050565b600033905090565b600081836111ae9190611d73565b905092915050565b600081836111c49190611de4565b905092915050565b600081519050919050565b600082825260208201905092915050565b60005b838110156112065780820151818401526020810190506111eb565b60008484015250505050565b6000601f19601f8301169050919050565b600061122e826111cc565b61123881856111d7565b93506112488185602086016111e8565b61125181611212565b840191505092915050565b600060208201905081810360008301526112768184611223565b905092915050565b600080fd5b600073ffffffffffffffffffffffffffffffffffffffff82169050919050565b60006112ae82611283565b9050919050565b6112be816112a3565b81146112c957600080fd5b50565b6000813590506112db816112b5565b92915050565b6000602082840312156112f7576112f661127e565b5b6000611305848285016112cc565b91505092915050565b600081519050919050565b600082825260208201905092915050565b6000819050602082019050919050565b6000819050919050565b61134d8161133a565b82525050565b60008115159050919050565b61136881611353565b82525050565b60c0820160008201516113846000850182611344565b5060208201516113976020850182611344565b5060408201516113aa6040850182611344565b5060608201516113bd6060850182611344565b5060808201516113d06080850182611344565b5060a08201516113e360a085018261135f565b50505050565b60006113f5838361136e565b60c08301905092915050565b6000602082019050919050565b60006114198261130e565b6114238185611319565b935061142e8361132a565b8060005b8381101561145f57815161144688826113e9565b975061145183611401565b925050600181019050611432565b5085935050505092915050565b60006020820190508181036000830152611486818461140e565b905092915050565b6114978161133a565b81146114a257600080fd5b50565b6000813590506114b48161148e565b92915050565b6000602082840312156114d0576114cf61127e565b5b60006114de848285016114a5565b91505092915050565b600067ffffffffffffffff82169050919050565b611504816114e7565b82525050565b600060208201905061151f60008301846114fb565b92915050565b61152e81611353565b82525050565b60006020820190506115496000830184611525565b92915050565b6000819050919050565b600061157461156f61156a84611283565b61154f565b611283565b9050919050565b600061158682611559565b9050919050565b60006115988261157b565b9050919050565b6115a88161158d565b82525050565b60006020820190506115c3600083018461159f565b92915050565b6115d28161133a565b82525050565b60006020820190506115ed60008301846115c9565b92915050565b6000806040838503121561160a5761160961127e565b5b6000611618858286016114a5565b9250506020611629858286016114a5565b9150509250929050565b61163c816112a3565b82525050565b60006020820190506116576000830184611633565b92915050565b61166681611353565b811461167157600080fd5b50565b6000813590506116838161165d565b92915050565b60006020828403121561169f5761169e61127e565b5b60006116ad84828501611674565b91505092915050565b600081519050919050565b600082825260208201905092915050565b6000819050602082019050919050565b6116eb816114e7565b82525050565b60808201600082015161170760008501826116e2565b50602082015161171a6020850182611344565b50604082015161172d6040850182611344565b506060820151611740606085018261135f565b50505050565b600061175283836116f1565b60808301905092915050565b6000602082019050919050565b6000611776826116b6565b61178081856116c1565b935061178b836116d2565b8060005b838110156117bc5781516117a38882611746565b97506117ae8361175e565b92505060018101905061178f565b5085935050505092915050565b600060208201905081810360008301526117e3818461176b565b905092915050565b6117f4816114e7565b81146117ff57600080fd5b50565b600081359050611811816117eb565b92915050565b6000806040838503121561182e5761182d61127e565b5b600061183c85828601611802565b925050602061184d858286016114a5565b9150509250929050565b600060808201905061186c60008301876114fb565b61187960208301866115c9565b61188660408301856115c9565b6118936060830184611525565b95945050505050565b7f4e487b7100000000000000000000000000000000000000000000000000000000600052602260045260246000fd5b600060028204905060018216806118e357607f821691505b6020821081036118f6576118f561189c565b5b50919050565b7f4e487b7100000000000000000000000000000000000000000000000000000000600052603260045260246000fd5b7f616c726561647920756e7374616b656400000000000000000000000000000000600082015250565b60006119616010836111d7565b915061196c8261192b565b602082019050919050565b6000602082019050818103600083015261199081611954565b9050919050565b7f63616e277420756e7374616b6520796574000000000000000000000000000000600082015250565b60006119cd6011836111d7565b91506119d882611997565b602082019050919050565b600060208201905081810360008301526119fc816119c0565b9050919050565b6000604082019050611a186000830185611633565b611a2560208301846115c9565b9392505050565b600081519050611a3b8161165d565b92915050565b600060208284031215611a5757611a5661127e565b5b6000611a6584828501611a2c565b91505092915050565b7f6e6f74207374616b696e6720706572696f640000000000000000000000000000600082015250565b6000611aa46012836111d7565b9150611aaf82611a6e565b602082019050919050565b60006020820190508181036000830152611ad381611a97565b9050919050565b7f43616e6e6f74207374616b65203020746f6b656e730000000000000000000000600082015250565b6000611b106015836111d7565b9150611b1b82611ada565b602082019050919050565b60006020820190508181036000830152611b3f81611b03565b9050919050565b6000606082019050611b5b6000830186611633565b611b686020830185611633565b611b7560408301846115c9565b949350505050565b6000604082019050611b926000830185611525565b611b9f60208301846115c9565b9392505050565b7f5a65726f20696e74657265737420726174650000000000000000000000000000600082015250565b6000611bdc6012836111d7565b9150611be782611ba6565b602082019050919050565b60006020820190508181036000830152611c0b81611bcf565b9050919050565b7f4f776e61626c653a206e6577206f776e657220697320746865207a65726f206160008201527f6464726573730000000000000000000000000000000000000000000000000000602082015250565b6000611c6e6026836111d7565b9150611c7982611c12565b604082019050919050565b60006020820190508181036000830152611c9d81611c61565b9050919050565b7f4f776e61626c653a2063616c6c6572206973206e6f7420746865206f776e6572600082015250565b6000611cda6020836111d7565b9150611ce582611ca4565b602082019050919050565b60006020820190508181036000830152611d0981611ccd565b9050919050565b7f4e487b7100000000000000000000000000000000000000000000000000000000600052601160045260246000fd5b6000611d4a8261133a565b9150611d558361133a565b9250828201905080821115611d6d57611d6c611d10565b5b92915050565b6000611d7e8261133a565b9150611d898361133a565b9250828202611d978161133a565b91508282048414831517611dae57611dad611d10565b5b5092915050565b7f4e487b7100000000000000000000000000000000000000000000000000000000600052601260045260246000fd5b6000611def8261133a565b9150611dfa8361133a565b925082611e0a57611e09611db5565b5b82820490509291505056fea26469706673582212201feed345e7491b0ba162e03c27663b1128059937546873d0c09fb20ea3f8dda564736f6c63430008180033",
  "linkReferences": {},
  "deployedLinkReferences": {}
}