{
  "_format": "hh-sol-artifact-1",
  "contractName": "Staking",
  "sourceName": "contracts/Staking.sol",
  "abi": [
    {
      "anonymous": false,
      "inputs": [
        {
          "indexed": true,
          "internalType": "address",
          "name": "staker",
          "type": "address"
        },
        {
          "indexed": false,
          "internalType": "uint256",
          "name": "reward",
          "type": "uint256"
        }
      ],
      "name": "RewardDistributed",
      "type": "event"
    },
    {
      "anonymous": false,
      "inputs": [
        {
          "indexed": true,
          "internalType": "address",
          "name": "staker",
          "type": "address"
        },
        {
          "indexed": false,
          "internalType": "uint256",
          "name": "amount",
          "type": "uint256"
        }
      ],
      "name": "Staked",
      "type": "event"
    },
    {
      "anonymous": false,
      "inputs": [
        {
          "indexed": true,
          "internalType": "address",
          "name": "staker",
          "type": "address"
        },
        {
          "indexed": false,
          "internalType": "uint256",
          "name": "remainAmount",
          "type": "uint256"
        },
        {
          "indexed": false,
          "internalType": "uint256",
          "name": "stakedAmount",
          "type": "uint256"
        }
      ],
      "name": "Unstaked",
      "type": "event"
    },
    {
      "inputs": [],
      "name": "distributeRewards",
      "outputs": [],
      "stateMutability": "nonpayable",
      "type": "function"
    },
    {
      "inputs": [],
      "name": "rewardPool",
      "outputs": [
        {
          "internalType": "uint256",
          "name": "",
          "type": "uint256"
        }
      ],
      "stateMutability": "view",
      "type": "function"
    },
    {
      "inputs": [],
      "name": "stake",
      "outputs": [],
      "stateMutability": "payable",
      "type": "function"
    },
    {
      "inputs": [
        {
          "internalType": "uint256",
          "name": "",
          "type": "uint256"
        }
      ],
      "name": "stakers",
      "outputs": [
        {
          "internalType": "address",
          "name": "",
          "type": "address"
        }
      ],
      "stateMutability": "view",
      "type": "function"
    },
    {
      "inputs": [
        {
          "internalType": "address",
          "name": "",
          "type": "address"
        }
      ],
      "name": "stakes",
      "outputs": [
        {
          "internalType": "uint256",
          "name": "amount",
          "type": "uint256"
        },
        {
          "internalType": "uint256",
          "name": "timestamp",
          "type": "uint256"
        }
      ],
      "stateMutability": "view",
      "type": "function"
    },
    {
      "inputs": [],
      "name": "totalStaked",
      "outputs": [
        {
          "internalType": "uint256",
          "name": "",
          "type": "uint256"
        }
      ],
      "stateMutability": "view",
      "type": "function"
    },
    {
      "inputs": [
        {
          "internalType": "uint256",
          "name": "_amount",
          "type": "uint256"
        }
      ],
      "name": "unstake",
      "outputs": [],
      "stateMutability": "nonpayable",
      "type": "function"
    },
    {
      "stateMutability": "payable",
      "type": "receive"
    }
  ],
  "bytecode": "0x608060405234801561001057600080fd5b50610e72806100206000396000f3fe6080604052600436106100745760003560e01c806366666aa91161004e57806366666aa9146101095780636f4a2cd014610134578063817b1cd21461014b578063fd5e6dd11461017657610093565b806316934fc4146100985780632e17de78146100d65780633a4b66f1146100ff57610093565b3661009357346003600082825461008b9190610a85565b925050819055005b600080fd5b3480156100a457600080fd5b506100bf60048036038101906100ba9190610b1c565b6101b3565b6040516100cd929190610b58565b60405180910390f35b3480156100e257600080fd5b506100fd60048036038101906100f89190610bad565b6101d7565b005b6101076103a6565b005b34801561011557600080fd5b5061011e6105c4565b60405161012b9190610bda565b60405180910390f35b34801561014057600080fd5b506101496105ca565b005b34801561015757600080fd5b5061016061076e565b60405161016d9190610bda565b60405180910390f35b34801561018257600080fd5b5061019d60048036038101906101989190610bad565b610774565b6040516101aa9190610c04565b60405180910390f35b60006020528060005260406000206000915090508060000154908060010154905082565b806000803373ffffffffffffffffffffffffffffffffffffffff1673ffffffffffffffffffffffffffffffffffffffff168152602001908152602001600020600001541161025a576040517f08c379a000000000000000000000000000000000000000000000000000000000815260040161025190610c7c565b60405180910390fd5b806000803373ffffffffffffffffffffffffffffffffffffffff1673ffffffffffffffffffffffffffffffffffffffff16815260200190815260200160002060000160008282546102ab9190610c9c565b9250508190555080600260008282546102c49190610c9c565b925050819055503373ffffffffffffffffffffffffffffffffffffffff166108fc829081150290604051600060405180830381858888f19350505050158015610311573d6000803e3d6000fd5b503373ffffffffffffffffffffffffffffffffffffffff167f7fc4727e062e336010f2c282598ef5f14facb3de68cf8195c2f23e1454b2b74e6000803373ffffffffffffffffffffffffffffffffffffffff1673ffffffffffffffffffffffffffffffffffffffff168152602001908152602001600020600001548360405161039b929190610b58565b60405180910390a250565b600034116103e9576040517f08c379a00000000000000000000000000000000000000000000000000000000081526004016103e090610d1c565b60405180910390fd5b60008060003373ffffffffffffffffffffffffffffffffffffffff1673ffffffffffffffffffffffffffffffffffffffff1681526020019081526020016000206000015403610502576040518060400160405280348152602001428152506000803373ffffffffffffffffffffffffffffffffffffffff1673ffffffffffffffffffffffffffffffffffffffff16815260200190815260200160002060008201518160000155602082015181600101559050503360018080549050815481106104b5576104b4610d3c565b5b9060005260206000200160006101000a81548173ffffffffffffffffffffffffffffffffffffffff021916908373ffffffffffffffffffffffffffffffffffffffff16021790555061055b565b346000803373ffffffffffffffffffffffffffffffffffffffff1673ffffffffffffffffffffffffffffffffffffffff16815260200190815260200160002060000160008282546105539190610a85565b925050819055505b346002600082825461056d9190610a85565b925050819055503373ffffffffffffffffffffffffffffffffffffffff167f9e71bc8eea02a63969f509818f2dafb9254532904319f9dbda79b67bd34a5f3d346040516105ba9190610bda565b60405180910390a2565b60035481565b60005b6105d56107b3565b5181101561076b5760006105e76107b3565b82815181106105f9576105f8610d3c565b5b6020026020010151905060006106916000808473ffffffffffffffffffffffffffffffffffffffff1673ffffffffffffffffffffffffffffffffffffffff168152602001908152602001600020600001546000808573ffffffffffffffffffffffffffffffffffffffff1673ffffffffffffffffffffffffffffffffffffffff16815260200190815260200160002060010154610a05565b9050600081111561075c57806000808473ffffffffffffffffffffffffffffffffffffffff1673ffffffffffffffffffffffffffffffffffffffff16815260200190815260200160002060000160008282546106ed9190610a85565b9250508190555080600360008282546107069190610c9c565b925050819055508173ffffffffffffffffffffffffffffffffffffffff167fe34918ff1c7084970068b53fd71ad6d8b04e9f15d3886cbf006443e6cdc52ea6826040516107539190610bda565b60405180910390a25b505080806001019150506105cd565b50565b60025481565b6001818154811061078457600080fd5b906000526020600020016000915054906101000a900473ffffffffffffffffffffffffffffffffffffffff1681565b60606000805b60018054905081101561086b576000806000600184815481106107df576107de610d3c565b5b9060005260206000200160009054906101000a900473ffffffffffffffffffffffffffffffffffffffff1673ffffffffffffffffffffffffffffffffffffffff1673ffffffffffffffffffffffffffffffffffffffff16815260200190815260200160002060000154111561085e5760018261085b9190610a85565b91505b80806001019150506107b9565b5060008167ffffffffffffffff81111561088857610887610d6b565b5b6040519080825280602002602001820160405280156108b65781602001602082028036833780820191505090505b5090506000805b6001805490508110156109fb576000806000600184815481106108e3576108e2610d3c565b5b9060005260206000200160009054906101000a900473ffffffffffffffffffffffffffffffffffffffff1673ffffffffffffffffffffffffffffffffffffffff1673ffffffffffffffffffffffffffffffffffffffff1681526020019081526020016000206000015411156109ee576001818154811061096657610965610d3c565b5b9060005260206000200160009054906101000a900473ffffffffffffffffffffffffffffffffffffffff168383815181106109a4576109a3610d3c565b5b602002602001019073ffffffffffffffffffffffffffffffffffffffff16908173ffffffffffffffffffffffffffffffffffffffff16815250506001826109eb9190610a85565b91505b80806001019150506108bd565b5081935050505090565b6000808242610a149190610c9c565b905060006001905063bbf81e00818387610a2e9190610d9a565b610a389190610d9a565b610a429190610e0b565b9250505092915050565b6000819050919050565b7f4e487b7100000000000000000000000000000000000000000000000000000000600052601160045260246000fd5b6000610a9082610a4c565b9150610a9b83610a4c565b9250828201905080821115610ab357610ab2610a56565b5b92915050565b600080fd5b600073ffffffffffffffffffffffffffffffffffffffff82169050919050565b6000610ae982610abe565b9050919050565b610af981610ade565b8114610b0457600080fd5b50565b600081359050610b1681610af0565b92915050565b600060208284031215610b3257610b31610ab9565b5b6000610b4084828501610b07565b91505092915050565b610b5281610a4c565b82525050565b6000604082019050610b6d6000830185610b49565b610b7a6020830184610b49565b9392505050565b610b8a81610a4c565b8114610b9557600080fd5b50565b600081359050610ba781610b81565b92915050565b600060208284031215610bc357610bc2610ab9565b5b6000610bd184828501610b98565b91505092915050565b6000602082019050610bef6000830184610b49565b92915050565b610bfe81610ade565b82525050565b6000602082019050610c196000830184610bf5565b92915050565b600082825260208201905092915050565b7f4e6f20656e6f75676820746f6b656e7320746f20756e7374616b650000000000600082015250565b6000610c66601b83610c1f565b9150610c7182610c30565b602082019050919050565b60006020820190508181036000830152610c9581610c59565b9050919050565b6000610ca782610a4c565b9150610cb283610a4c565b9250828203905081811115610cca57610cc9610a56565b5b92915050565b7f4d757374207374616b65206e6f6e2d7a65726f20616d6f756e74000000000000600082015250565b6000610d06601a83610c1f565b9150610d1182610cd0565b602082019050919050565b60006020820190508181036000830152610d3581610cf9565b9050919050565b7f4e487b7100000000000000000000000000000000000000000000000000000000600052603260045260246000fd5b7f4e487b7100000000000000000000000000000000000000000000000000000000600052604160045260246000fd5b6000610da582610a4c565b9150610db083610a4c565b9250828202610dbe81610a4c565b91508282048414831517610dd557610dd4610a56565b5b5092915050565b7f4e487b7100000000000000000000000000000000000000000000000000000000600052601260045260246000fd5b6000610e1682610a4c565b9150610e2183610a4c565b925082610e3157610e30610ddc565b5b82820490509291505056fea2646970667358221220371612902271db88e51670b004dcaba2124bc2854dc8635a323b31a5241c63b364736f6c63430008180033",
  "linkReferences": {},
  "deployedLinkReferences": {}
}